{
  "contractName": "Voting",
  "abi": [
    {
      "anonymous": false,
      "inputs": [
        {
          "indexed": true,
          "internalType": "address",
          "name": "previousOwner",
          "type": "address"
        },
        {
          "indexed": true,
          "internalType": "address",
          "name": "newOwner",
          "type": "address"
        }
      ],
      "name": "OwnershipTransferred",
      "type": "event"
    },
    {
      "anonymous": false,
      "inputs": [
        {
          "indexed": false,
          "internalType": "uint256",
          "name": "proposalId",
          "type": "uint256"
        }
      ],
      "name": "ProposalRegistered",
      "type": "event"
    },
    {
      "anonymous": false,
      "inputs": [
        {
          "indexed": false,
          "internalType": "address",
          "name": "voter",
          "type": "address"
        },
        {
          "indexed": false,
          "internalType": "uint256",
          "name": "proposalId",
          "type": "uint256"
        }
      ],
      "name": "Voted",
      "type": "event"
    },
    {
      "anonymous": false,
      "inputs": [
        {
          "indexed": false,
          "internalType": "address",
          "name": "voterAddress",
          "type": "address"
        }
      ],
      "name": "VoterRegistered",
      "type": "event"
    },
    {
      "anonymous": false,
      "inputs": [
        {
          "indexed": false,
          "internalType": "enum Voting.WorkflowStatus",
          "name": "previousStatus",
          "type": "uint8"
        },
        {
          "indexed": false,
          "internalType": "enum Voting.WorkflowStatus",
          "name": "newStatus",
          "type": "uint8"
        }
      ],
      "name": "WorkflowStatusChange",
      "type": "event"
    },
    {
      "inputs": [],
      "name": "owner",
      "outputs": [
        {
          "internalType": "address",
          "name": "",
          "type": "address"
        }
      ],
      "stateMutability": "view",
      "type": "function"
    },
    {
      "inputs": [
        {
          "internalType": "uint256",
          "name": "",
          "type": "uint256"
        }
      ],
      "name": "proposals",
      "outputs": [
        {
          "internalType": "string",
          "name": "description",
          "type": "string"
        },
        {
          "internalType": "uint256",
          "name": "voteCount",
          "type": "uint256"
        }
      ],
      "stateMutability": "view",
      "type": "function"
    },
    {
      "inputs": [],
      "name": "renounceOwnership",
      "outputs": [],
      "stateMutability": "nonpayable",
      "type": "function"
    },
    {
      "inputs": [
        {
          "internalType": "address",
          "name": "newOwner",
          "type": "address"
        }
      ],
      "name": "transferOwnership",
      "outputs": [],
      "stateMutability": "nonpayable",
      "type": "function"
    },
    {
      "inputs": [
        {
          "internalType": "address",
          "name": "",
          "type": "address"
        }
      ],
      "name": "voters",
      "outputs": [
        {
          "internalType": "bool",
          "name": "isRegistered",
          "type": "bool"
        },
        {
          "internalType": "bool",
          "name": "hasVoted",
          "type": "bool"
        },
        {
          "internalType": "uint256",
          "name": "votedProposalId",
          "type": "uint256"
        }
      ],
      "stateMutability": "view",
      "type": "function"
    },
    {
      "inputs": [],
      "name": "workflowCurrentStatus",
      "outputs": [
        {
          "internalType": "enum Voting.WorkflowStatus",
          "name": "",
          "type": "uint8"
        }
      ],
      "stateMutability": "view",
      "type": "function"
    },
    {
      "inputs": [],
      "name": "getWinner",
      "outputs": [
        {
          "internalType": "uint256",
          "name": "",
          "type": "uint256"
        }
      ],
      "stateMutability": "view",
      "type": "function"
    },
    {
      "inputs": [
        {
          "internalType": "address",
          "name": "_addressVoter",
          "type": "address"
        }
      ],
      "name": "addVoter",
      "outputs": [],
      "stateMutability": "nonpayable",
      "type": "function"
    },
    {
      "inputs": [],
      "name": "startProposalSession",
      "outputs": [],
      "stateMutability": "nonpayable",
      "type": "function"
    },
    {
      "inputs": [
        {
          "internalType": "string",
          "name": "_description",
          "type": "string"
        }
      ],
      "name": "addProposal",
      "outputs": [],
      "stateMutability": "nonpayable",
      "type": "function"
    },
    {
      "inputs": [],
      "name": "stopProposalSession",
      "outputs": [],
      "stateMutability": "nonpayable",
      "type": "function"
    },
    {
      "inputs": [],
      "name": "startVotingSession",
      "outputs": [],
      "stateMutability": "nonpayable",
      "type": "function"
    },
    {
      "inputs": [
        {
          "internalType": "uint16",
          "name": "_votedProposalId",
          "type": "uint16"
        }
      ],
      "name": "addVote",
      "outputs": [],
      "stateMutability": "nonpayable",
      "type": "function"
    },
    {
      "inputs": [],
      "name": "stopVotingSession",
      "outputs": [],
      "stateMutability": "nonpayable",
      "type": "function"
    },
    {
      "inputs": [],
      "name": "votesResult",
      "outputs": [],
      "stateMutability": "nonpayable",
      "type": "function"
    },
    {
      "inputs": [],
      "name": "getWinningProposal",
      "outputs": [
        {
          "internalType": "string",
          "name": "description",
          "type": "string"
        },
        {
          "internalType": "uint256",
          "name": "voteCount",
          "type": "uint256"
        }
      ],
      "stateMutability": "view",
      "type": "function"
    }
  ],
  "bytecode": "0x608060405260008060146101000a81548160ff021916908360058111156200002c576200002b62000131565b5b02179055503480156200003e57600080fd5b506200005f620000536200006560201b60201c565b6200006d60201b60201c565b62000160565b600033905090565b60008060009054906101000a900473ffffffffffffffffffffffffffffffffffffffff169050816000806101000a81548173ffffffffffffffffffffffffffffffffffffffff021916908373ffffffffffffffffffffffffffffffffffffffff1602179055508173ffffffffffffffffffffffffffffffffffffffff168173ffffffffffffffffffffffffffffffffffffffff167f8be0079c531659141344cd1fd0a4f28419497f9722a3daafe3b4186f6b6457e060405160405180910390a35050565b7f4e487b7100000000000000000000000000000000000000000000000000000000600052602160045260246000fd5b61235b80620001706000396000f3fe608060405234801561001057600080fd5b50600436106101005760003560e01c806391622f2511610097578063e67650be11610066578063e67650be14610241578063ee74c6781461024b578063f2fde38b14610255578063f4ab9adf1461027157610100565b806391622f25146101c8578063a3ec138d146101e6578063a513462014610218578063d0321ed51461023757610100565b8063715018a6116100d3578063715018a614610166578063863b85bf146101705780638da5cb5b1461018c5780638e7ea5b2146101aa57610100565b8063013cf08b1461010557806317a0ad8e146101365780632fdae3c51461014057806350d072fc1461015c575b600080fd5b61011f600480360381019061011a9190611735565b61028d565b60405161012d929190611a8f565b60405180910390f35b61013e610349565b005b61015a600480360381019061015591906116bf565b6104a3565b005b610164610663565b005b61016e6107bd565b005b61018a60048036038101906101859190611708565b610845565b005b610194610afb565b6040516101a191906119d0565b60405180910390f35b6101b2610b24565b6040516101bf9190611c7f565b60405180910390f35b6101d0610b2e565b6040516101dd9190611a4b565b60405180910390f35b61020060048036038101906101fb9190611692565b610b41565b60405161020f93929190611a14565b60405180910390f35b610220610b85565b60405161022e929190611a8f565b60405180910390f35b61023f610ce1565b005b610249610ed4565b005b610253610fb8565b005b61026f600480360381019061026a9190611692565b611112565b005b61028b60048036038101906102869190611692565b61120a565b005b6003818154811061029d57600080fd5b90600052602060002090600202016000915090508060000180546102c090611e0f565b80601f01602080910402602001604051908101604052809291908181526020018280546102ec90611e0f565b80156103395780601f1061030e57610100808354040283529160200191610339565b820191906000526020600020905b81548152906001019060200180831161031c57829003601f168201915b5050505050908060010154905082565b610351611474565b73ffffffffffffffffffffffffffffffffffffffff1661036f610afb565b73ffffffffffffffffffffffffffffffffffffffff16146103c5576040517f08c379a00000000000000000000000000000000000000000000000000000000081526004016103bc90611bbf565b60405180910390fd5b600360058111156103d9576103d8611f15565b5b600060149054906101000a900460ff1660058111156103fb576103fa611f15565b5b1461043b576040517f08c379a000000000000000000000000000000000000000000000000000000000815260040161043290611c5f565b60405180910390fd5b6004600060146101000a81548160ff0219169083600581111561046157610460611f15565b5b02179055507f0a97a4ee45751e2abf3e4fc8946939630b11b371ea8ae39ccdc3056e98f5cc3f60036004604051610499929190611a66565b60405180910390a1565b600160058111156104b7576104b6611f15565b5b600060149054906101000a900460ff1660058111156104d9576104d8611f15565b5b14610519576040517f08c379a000000000000000000000000000000000000000000000000000000000815260040161051090611adf565b60405180910390fd5b600260003373ffffffffffffffffffffffffffffffffffffffff1673ffffffffffffffffffffffffffffffffffffffff16815260200190815260200160002060000160009054906101000a900460ff166105a8576040517f08c379a000000000000000000000000000000000000000000000000000000000815260040161059f90611b5f565b60405180910390fd5b60036040518060400160405280838152602001600081525090806001815401808255809150506001900390600052602060002090600202016000909190919091506000820151816000019080519060200190610605929190611540565b50602082015181600101555050600060016003805490506106269190611d0c565b90507f92e393e9b54e2f801d3ea4beb0c5e71a21cc34a5d34b77d0fb8a3aa1650dc18f816040516106579190611c7f565b60405180910390a15050565b61066b611474565b73ffffffffffffffffffffffffffffffffffffffff16610689610afb565b73ffffffffffffffffffffffffffffffffffffffff16146106df576040517f08c379a00000000000000000000000000000000000000000000000000000000081526004016106d690611bbf565b60405180910390fd5b600060058111156106f3576106f2611f15565b5b600060149054906101000a900460ff16600581111561071557610714611f15565b5b14610755576040517f08c379a000000000000000000000000000000000000000000000000000000000815260040161074c90611b1f565b60405180910390fd5b6001600060146101000a81548160ff0219169083600581111561077b5761077a611f15565b5b02179055507f0a97a4ee45751e2abf3e4fc8946939630b11b371ea8ae39ccdc3056e98f5cc3f600060036040516107b3929190611a66565b60405180910390a1565b6107c5611474565b73ffffffffffffffffffffffffffffffffffffffff166107e3610afb565b73ffffffffffffffffffffffffffffffffffffffff1614610839576040517f08c379a000000000000000000000000000000000000000000000000000000000815260040161083090611bbf565b60405180910390fd5b610843600061147c565b565b6003600581111561085957610858611f15565b5b600060149054906101000a900460ff16600581111561087b5761087a611f15565b5b146108bb576040517f08c379a00000000000000000000000000000000000000000000000000000000081526004016108b290611bdf565b60405180910390fd5b600260003373ffffffffffffffffffffffffffffffffffffffff1673ffffffffffffffffffffffffffffffffffffffff16815260200190815260200160002060000160009054906101000a900460ff1661094a576040517f08c379a000000000000000000000000000000000000000000000000000000000815260040161094190611b7f565b60405180910390fd5b600260003373ffffffffffffffffffffffffffffffffffffffff1673ffffffffffffffffffffffffffffffffffffffff16815260200190815260200160002060000160019054906101000a900460ff16156109da576040517f08c379a00000000000000000000000000000000000000000000000000000000081526004016109d190611c1f565b60405180910390fd5b8061ffff16600260003373ffffffffffffffffffffffffffffffffffffffff1673ffffffffffffffffffffffffffffffffffffffff168152602001908152602001600020600101819055506001600260003373ffffffffffffffffffffffffffffffffffffffff1673ffffffffffffffffffffffffffffffffffffffff16815260200190815260200160002060000160016101000a81548160ff02191690831515021790555060038161ffff1681548110610a9857610a97611f73565b5b90600052602060002090600202016001016000815480929190610aba90611e9d565b91905055507f4d99b957a2bc29a30ebd96a7be8e68fe50a3c701db28a91436490b7d53870ca43382604051610af09291906119eb565b60405180910390a150565b60008060009054906101000a900473ffffffffffffffffffffffffffffffffffffffff16905090565b6000600154905090565b600060149054906101000a900460ff1681565b60026020528060005260406000206000915090508060000160009054906101000a900460ff16908060000160019054906101000a900460ff16908060010154905083565b60606000600580811115610b9c57610b9b611f15565b5b600060149054906101000a900460ff166005811115610bbe57610bbd611f15565b5b14610bfe576040517f08c379a0000000000000000000000000000000000000000000000000000000008152600401610bf590611aff565b60405180910390fd5b600360015481548110610c1457610c13611f73565b5b9060005260206000209060020201600001600360015481548110610c3b57610c3a611f73565b5b906000526020600020906002020160010154818054610c5990611e0f565b80601f0160208091040260200160405190810160405280929190818152602001828054610c8590611e0f565b8015610cd25780601f10610ca757610100808354040283529160200191610cd2565b820191906000526020600020905b815481529060010190602001808311610cb557829003601f168201915b50505050509150915091509091565b610ce9611474565b73ffffffffffffffffffffffffffffffffffffffff16610d07610afb565b73ffffffffffffffffffffffffffffffffffffffff1614610d5d576040517f08c379a0000000000000000000000000000000000000000000000000000000008152600401610d5490611bbf565b60405180910390fd5b60046005811115610d7157610d70611f15565b5b600060149054906101000a900460ff166005811115610d9357610d92611f15565b5b14610dd3576040517f08c379a0000000000000000000000000000000000000000000000000000000008152600401610dca90611c3f565b60405180910390fd5b6000806005600060146101000a81548160ff02191690836005811115610dfc57610dfb611f15565b5b021790555060005b6003805490508161ffff161015610e8d578160038261ffff1681548110610e2e57610e2d611f73565b5b9060005260206000209060020201600101541115610e7a578061ffff16925060038161ffff1681548110610e6557610e64611f73565b5b90600052602060002090600202016001015491505b8080610e8590611e72565b915050610e04565b50816001819055507f0a97a4ee45751e2abf3e4fc8946939630b11b371ea8ae39ccdc3056e98f5cc3f60046005604051610ec8929190611a66565b60405180910390a15050565b610edc611474565b73ffffffffffffffffffffffffffffffffffffffff16610efa610afb565b73ffffffffffffffffffffffffffffffffffffffff1614610f50576040517f08c379a0000000000000000000000000000000000000000000000000000000008152600401610f4790611bbf565b60405180910390fd5b6002600060146101000a81548160ff02191690836005811115610f7657610f75611f15565b5b02179055507f0a97a4ee45751e2abf3e4fc8946939630b11b371ea8ae39ccdc3056e98f5cc3f60016002604051610fae929190611a66565b60405180910390a1565b610fc0611474565b73ffffffffffffffffffffffffffffffffffffffff16610fde610afb565b73ffffffffffffffffffffffffffffffffffffffff1614611034576040517f08c379a000000000000000000000000000000000000000000000000000000000815260040161102b90611bbf565b60405180910390fd5b6002600581111561104857611047611f15565b5b600060149054906101000a900460ff16600581111561106a57611069611f15565b5b146110aa576040517f08c379a00000000000000000000000000000000000000000000000000000000081526004016110a190611b9f565b60405180910390fd5b6003600060146101000a81548160ff021916908360058111156110d0576110cf611f15565b5b02179055507f0a97a4ee45751e2abf3e4fc8946939630b11b371ea8ae39ccdc3056e98f5cc3f60026003604051611108929190611a66565b60405180910390a1565b61111a611474565b73ffffffffffffffffffffffffffffffffffffffff16611138610afb565b73ffffffffffffffffffffffffffffffffffffffff161461118e576040517f08c379a000000000000000000000000000000000000000000000000000000000815260040161118590611bbf565b60405180910390fd5b600073ffffffffffffffffffffffffffffffffffffffff168173ffffffffffffffffffffffffffffffffffffffff1614156111fe576040517f08c379a00000000000000000000000000000000000000000000000000000000081526004016111f590611abf565b60405180910390fd5b6112078161147c565b50565b611212611474565b73ffffffffffffffffffffffffffffffffffffffff16611230610afb565b73ffffffffffffffffffffffffffffffffffffffff1614611286576040517f08c379a000000000000000000000000000000000000000000000000000000000815260040161127d90611bbf565b60405180910390fd5b6000600581111561129a57611299611f15565b5b600060149054906101000a900460ff1660058111156112bc576112bb611f15565b5b146112fc576040517f08c379a00000000000000000000000000000000000000000000000000000000081526004016112f390611bff565b60405180910390fd5b600260008273ffffffffffffffffffffffffffffffffffffffff1673ffffffffffffffffffffffffffffffffffffffff16815260200190815260200160002060000160009054906101000a900460ff161561138c576040517f08c379a000000000000000000000000000000000000000000000000000000000815260040161138390611b3f565b60405180910390fd5b60405180606001604052806001151581526020016000151581526020016000815250600260008373ffffffffffffffffffffffffffffffffffffffff1673ffffffffffffffffffffffffffffffffffffffff16815260200190815260200160002060008201518160000160006101000a81548160ff02191690831515021790555060208201518160000160016101000a81548160ff021916908315150217905550604082015181600101559050507fb6be2187d059cc2a55fe29e0e503b566e1e0f8c8780096e185429350acffd3dd8160405161146991906119d0565b60405180910390a150565b600033905090565b60008060009054906101000a900473ffffffffffffffffffffffffffffffffffffffff169050816000806101000a81548173ffffffffffffffffffffffffffffffffffffffff021916908373ffffffffffffffffffffffffffffffffffffffff1602179055508173ffffffffffffffffffffffffffffffffffffffff168173ffffffffffffffffffffffffffffffffffffffff167f8be0079c531659141344cd1fd0a4f28419497f9722a3daafe3b4186f6b6457e060405160405180910390a35050565b82805461154c90611e0f565b90600052602060002090601f01602090048101928261156e57600085556115b5565b82601f1061158757805160ff19168380011785556115b5565b828001600101855582156115b5579182015b828111156115b4578251825591602001919060010190611599565b5b5090506115c291906115c6565b5090565b5b808211156115df5760008160009055506001016115c7565b5090565b60006115f66115f184611cbf565b611c9a565b90508281526020810184848401111561161257611611611fd6565b5b61161d848285611dcd565b509392505050565b600081359050611634816122e0565b92915050565b600082601f83011261164f5761164e611fd1565b5b813561165f8482602086016115e3565b91505092915050565b600081359050611677816122f7565b92915050565b60008135905061168c8161230e565b92915050565b6000602082840312156116a8576116a7611fe0565b5b60006116b684828501611625565b91505092915050565b6000602082840312156116d5576116d4611fe0565b5b600082013567ffffffffffffffff8111156116f3576116f2611fdb565b5b6116ff8482850161163a565b91505092915050565b60006020828403121561171e5761171d611fe0565b5b600061172c84828501611668565b91505092915050565b60006020828403121561174b5761174a611fe0565b5b60006117598482850161167d565b91505092915050565b61176b81611d40565b82525050565b61177a81611d52565b82525050565b61178981611da9565b82525050565b600061179a82611cf0565b6117a48185611cfb565b93506117b4818560208601611ddc565b6117bd81611fe5565b840191505092915050565b60006117d5602683611cfb565b91506117e082611ff6565b604082019050919050565b60006117f8602783611cfb565b915061180382612045565b604082019050919050565b600061181b601e83611cfb565b915061182682612094565b602082019050919050565b600061183e602283611cfb565b9150611849826120bd565b604082019050919050565b6000611861601883611cfb565b915061186c8261210c565b602082019050919050565b6000611884601483611cfb565b915061188f82612135565b602082019050919050565b60006118a7601283611cfb565b91506118b28261215e565b602082019050919050565b60006118ca602083611cfb565b91506118d582612187565b602082019050919050565b60006118ed602083611cfb565b91506118f8826121b0565b602082019050919050565b6000611910601783611cfb565b915061191b826121d9565b602082019050919050565b6000611933602383611cfb565b915061193e82612202565b604082019050919050565b6000611956601683611cfb565b915061196182612251565b602082019050919050565b6000611979601b83611cfb565b91506119848261227a565b602082019050919050565b600061199c601f83611cfb565b91506119a7826122a3565b602082019050919050565b6119bb81611dbb565b82525050565b6119ca81611d9f565b82525050565b60006020820190506119e56000830184611762565b92915050565b6000604082019050611a006000830185611762565b611a0d60208301846119b2565b9392505050565b6000606082019050611a296000830186611771565b611a366020830185611771565b611a4360408301846119c1565b949350505050565b6000602082019050611a606000830184611780565b92915050565b6000604082019050611a7b6000830185611780565b611a886020830184611780565b9392505050565b60006040820190508181036000830152611aa9818561178f565b9050611ab860208301846119c1565b9392505050565b60006020820190508181036000830152611ad8816117c8565b9050919050565b60006020820190508181036000830152611af8816117eb565b9050919050565b60006020820190508181036000830152611b188161180e565b9050919050565b60006020820190508181036000830152611b3881611831565b9050919050565b60006020820190508181036000830152611b5881611854565b9050919050565b60006020820190508181036000830152611b7881611877565b9050919050565b60006020820190508181036000830152611b988161189a565b9050919050565b60006020820190508181036000830152611bb8816118bd565b9050919050565b60006020820190508181036000830152611bd8816118e0565b9050919050565b60006020820190508181036000830152611bf881611903565b9050919050565b60006020820190508181036000830152611c1881611926565b9050919050565b60006020820190508181036000830152611c3881611949565b9050919050565b60006020820190508181036000830152611c588161196c565b9050919050565b60006020820190508181036000830152611c788161198f565b9050919050565b6000602082019050611c9460008301846119c1565b92915050565b6000611ca4611cb5565b9050611cb08282611e41565b919050565b6000604051905090565b600067ffffffffffffffff821115611cda57611cd9611fa2565b5b611ce382611fe5565b9050602081019050919050565b600081519050919050565b600082825260208201905092915050565b6000611d1782611d9f565b9150611d2283611d9f565b925082821015611d3557611d34611ee6565b5b828203905092915050565b6000611d4b82611d7f565b9050919050565b60008115159050919050565b6000819050611d6c826122cc565b919050565b600061ffff82169050919050565b600073ffffffffffffffffffffffffffffffffffffffff82169050919050565b6000819050919050565b6000611db482611d5e565b9050919050565b6000611dc682611d71565b9050919050565b82818337600083830152505050565b60005b83811015611dfa578082015181840152602081019050611ddf565b83811115611e09576000848401525b50505050565b60006002820490506001821680611e2757607f821691505b60208210811415611e3b57611e3a611f44565b5b50919050565b611e4a82611fe5565b810181811067ffffffffffffffff82111715611e6957611e68611fa2565b5b80604052505050565b6000611e7d82611d71565b915061ffff821415611e9257611e91611ee6565b5b600182019050919050565b6000611ea882611d9f565b91507fffffffffffffffffffffffffffffffffffffffffffffffffffffffffffffffff821415611edb57611eda611ee6565b5b600182019050919050565b7f4e487b7100000000000000000000000000000000000000000000000000000000600052601160045260246000fd5b7f4e487b7100000000000000000000000000000000000000000000000000000000600052602160045260246000fd5b7f4e487b7100000000000000000000000000000000000000000000000000000000600052602260045260246000fd5b7f4e487b7100000000000000000000000000000000000000000000000000000000600052603260045260246000fd5b7f4e487b7100000000000000000000000000000000000000000000000000000000600052604160045260246000fd5b600080fd5b600080fd5b600080fd5b600080fd5b6000601f19601f8301169050919050565b7f4f776e61626c653a206e6577206f776e657220697320746865207a65726f206160008201527f6464726573730000000000000000000000000000000000000000000000000000602082015250565b7f4e6f7420696e20612050726f706f73616c7320526567697374726174696f6e2060008201527f70726f6365737300000000000000000000000000000000000000000000000000602082015250565b7f566f746520526573756c74206e6f7420616c72656164792072657665616c0000600082015250565b7f4e6f7420696e2061205265676973746572696e6720566f74657273205374617460008201527f7573000000000000000000000000000000000000000000000000000000000000602082015250565b7f566f74657220616c726561647920726567697374657265640000000000000000600082015250565b7f566f746572206e6f742072656769737465726564000000000000000000000000600082015250565b7f566f7465722063616e206e6f7420766f74650000000000000000000000000000600082015250565b7f50726f706f73616c7320526567697374726174696f6e206e6f7420456e646564600082015250565b7f4f776e61626c653a2063616c6c6572206973206e6f7420746865206f776e6572600082015250565b7f4974206973206e6f742074696d6520746f20766f746521000000000000000000600082015250565b7f4e6f74205265676973746572696e6720566f746572732053746174757320697360008201527f206f6e0000000000000000000000000000000000000000000000000000000000602082015250565b7f566f7465722068617320616c726561647920766f746500000000000000000000600082015250565b7f566f74696e672073657373696f6e206973206e6f7420656e6465640000000000600082015250565b7f4e6f7420566f74696e6753657373696f6e537461727465642053746174757300600082015250565b600681106122dd576122dc611f15565b5b50565b6122e981611d40565b81146122f457600080fd5b50565b61230081611d71565b811461230b57600080fd5b50565b61231781611d9f565b811461232257600080fd5b5056fea2646970667358221220ef0eb26797dc7e123783ddfd5d81aa40813725e8332844310d2a9480bc0b776064736f6c63430008070033",
  "immutableReferences": {},
  "source": "// SPDX-License-Identifier: GPL\npragma solidity 0.8.7;\n\nimport \"@openzeppelin/contracts/access/Ownable.sol\";\n\n/**\n * @title Voting contract\n * @author Aleksandra Kojic\n * @notice Alyra school exercise\n */\ncontract Voting is Ownable {\n    /**\n     * @dev Struct of an Voter\n     * @notice it represents a single voter\n     */\n    struct Voter {\n        bool isRegistered;\n        bool hasVoted;\n        uint256 votedProposalId;\n    }\n    /**\n     * @dev Struct for a Proposal\n     */\n    struct Proposal {\n        string description;\n        uint256 voteCount;\n    }\n    /**\n     * @notice Keeps track of voting session state\n     * @dev Only admin can change the state\n     */\n    enum WorkflowStatus {\n        RegisteringVoters,\n        ProposalsRegistrationStarted,\n        ProposalsRegistrationEnded,\n        VotingSessionStarted,\n        VotingSessionEnded,\n        VotesTallied\n    }\n    /**\n     * @notice Initial state - beginning of session with registering voters\n     */\n    WorkflowStatus public workflowCurrentStatus =\n        WorkflowStatus.RegisteringVoters;\n\n    //\n    uint256 winningProposalId;\n    mapping(address => Voter) public voters;\n    Proposal[] public proposals;\n\n    event VoterRegistered(address voterAddress);\n    event WorkflowStatusChange(\n        WorkflowStatus previousStatus,\n        WorkflowStatus newStatus\n    );\n    event ProposalRegistered(uint256 proposalId);\n    event Voted(address voter, uint256 proposalId);\n\n    /**\n     * @dev Get the winner Id\n     * @return uint\n     */\n    function getWinner() public view returns (uint256) {\n        return winningProposalId;\n    }\n\n    /**\n     * @dev Add a voter with his blockchain address\n     * @param _addressVoter of voter\n     */\n    function addVoter(address _addressVoter) external onlyOwner {\n        require(\n            workflowCurrentStatus == WorkflowStatus.RegisteringVoters,\n            \"Not Registering Voters Status is on\"\n        );\n        require(\n            !voters[_addressVoter].isRegistered,\n            \"Voter already registered\"\n        );\n        voters[_addressVoter] = Voter(true, false, 0);\n        emit VoterRegistered(_addressVoter);\n    }\n\n    /**\n     * @dev Admin start the proposal process for voters and change the status to ProposalsRegistrationStarted\n     * @\n     */\n    function startProposalSession() external onlyOwner {\n        require(\n            workflowCurrentStatus == WorkflowStatus.RegisteringVoters,\n            \"Not in a Registering Voters Status\"\n        );\n        workflowCurrentStatus = WorkflowStatus.ProposalsRegistrationStarted;\n        emit WorkflowStatusChange(\n            WorkflowStatus.RegisteringVoters,\n            WorkflowStatus.VotingSessionStarted\n        );\n    }\n\n    /**\n     * @dev Voter add proposal.\n     * @param _description content of proposal\n     */\n    function addProposal(string memory _description) external {\n        require(\n            workflowCurrentStatus ==\n                WorkflowStatus.ProposalsRegistrationStarted,\n            \"Not in a Proposals Registration process\"\n        );\n        require(voters[msg.sender].isRegistered, \"Voter not registered\");\n\n        proposals.push(Proposal(_description, 0));\n        uint256 proposalId = proposals.length - 1;\n        emit ProposalRegistered(proposalId);\n    }\n\n    /**\n     * @dev Stop registering proposals and change the status to ProposalsRegistrationEnded\n     */\n    function stopProposalSession() external onlyOwner {\n        workflowCurrentStatus = WorkflowStatus.ProposalsRegistrationEnded;\n        emit WorkflowStatusChange(\n            WorkflowStatus.ProposalsRegistrationStarted,\n            WorkflowStatus.ProposalsRegistrationEnded\n        );\n    }\n\n    /**\n     * @dev Start the voting session.\n     */\n    function startVotingSession() external onlyOwner {\n        require(\n            workflowCurrentStatus == WorkflowStatus.ProposalsRegistrationEnded,\n            \"Proposals Registration not Ended\"\n        );\n        workflowCurrentStatus = WorkflowStatus.VotingSessionStarted;\n        emit WorkflowStatusChange(\n            WorkflowStatus.ProposalsRegistrationEnded,\n            WorkflowStatus.VotingSessionStarted\n        );\n    }\n\n    /**\n     * @dev Add a vote\n     * @param _votedProposalId index of proposal to vote\n     */\n    function addVote(uint16 _votedProposalId) external {\n        require(\n            workflowCurrentStatus == WorkflowStatus.VotingSessionStarted,\n            \"It is not time to vote!\"\n        );\n        require(voters[msg.sender].isRegistered, \"Voter can not vote\");\n        require(!voters[msg.sender].hasVoted, \"Voter has already vote\");\n\n        voters[msg.sender].votedProposalId = _votedProposalId;\n        voters[msg.sender].hasVoted = true;\n        proposals[_votedProposalId].voteCount++;\n\n        emit Voted(msg.sender, _votedProposalId);\n    }\n\n    /**\n     * @dev Stop the voting session.\n     */\n    function stopVotingSession() public onlyOwner {\n        require(\n            workflowCurrentStatus == WorkflowStatus.VotingSessionStarted,\n            \"Not VotingSessionStarted Status\"\n        );\n        workflowCurrentStatus = WorkflowStatus.VotingSessionEnded;\n        emit WorkflowStatusChange(\n            WorkflowStatus.VotingSessionStarted,\n            WorkflowStatus.VotingSessionEnded\n        );\n    }\n\n    /**\n     * @dev Score the voting session.\n     * @notice votesResult calculates votes and emit the event of status change to VotesTallied\n     */\n    function votesResult() external onlyOwner {\n        require(\n            workflowCurrentStatus == WorkflowStatus.VotingSessionEnded,\n            \"Voting session is not ended\"\n        );\n\n        uint256 _winnerId;\n        uint256 _nbVotesWinner;\n\n        workflowCurrentStatus = WorkflowStatus.VotesTallied;\n\n        for (uint16 i; i < proposals.length; i++) {\n            if (proposals[i].voteCount > _nbVotesWinner) {\n                _winnerId = i;\n                _nbVotesWinner = proposals[i].voteCount;\n            }\n        }\n        winningProposalId = _winnerId;\n\n        emit WorkflowStatusChange(\n            WorkflowStatus.VotingSessionEnded,\n            WorkflowStatus.VotesTallied\n        );\n    }\n\n    /**\n     * @dev Get the winning Proposal Information\n     * @return description of the winning proposal\n     * @return voteCount : number of votes for the winning proposal\n     */\n    function getWinningProposal()\n        external\n        view\n        returns (string memory description, uint256 voteCount)\n    {\n        require(\n            workflowCurrentStatus == WorkflowStatus.VotesTallied,\n            \"Vote Result not already reveal\"\n        );\n        return (\n            proposals[winningProposalId].description,\n            proposals[winningProposalId].voteCount\n        );\n    }\n\n}\n",
  "sourcePath": "/home/kojche/Documents/projects/alyra/courseCode/Developpeur-Ethereum-Template/6_Dapp/unbox-react/contracts/Voting.sol",
  "compiler": {
    "name": "solc",
    "version": "0.8.7+commit.e28d00a7.Emscripten.clang"
  },
  "schemaVersion": "3.4.3",
  "updatedAt": "2021-12-01T03:25:50.274Z",
  "devdoc": {
    "author": "Aleksandra Kojic",
    "kind": "dev",
    "methods": {
      "addProposal(string)": {
        "details": "Voter add proposal.",
        "params": {
          "_description": "content of proposal"
        }
      },
      "addVote(uint16)": {
        "details": "Add a vote",
        "params": {
          "_votedProposalId": "index of proposal to vote"
        }
      },
      "addVoter(address)": {
        "details": "Add a voter with his blockchain address",
        "params": {
          "_addressVoter": "of voter"
        }
      },
      "getWinner()": {
        "details": "Get the winner Id",
        "returns": {
          "_0": "uint"
        }
      },
      "getWinningProposal()": {
        "details": "Get the winning Proposal Information",
        "returns": {
          "description": "of the winning proposal",
          "voteCount": ": number of votes for the winning proposal"
        }
      },
      "owner()": {
        "details": "Returns the address of the current owner."
      },
      "renounceOwnership()": {
        "details": "Leaves the contract without owner. It will not be possible to call `onlyOwner` functions anymore. Can only be called by the current owner. NOTE: Renouncing ownership will leave the contract without an owner, thereby removing any functionality that is only available to the owner."
      },
      "startProposalSession()": {
        "details": "Admin start the proposal process for voters and change the status to ProposalsRegistrationStarted"
      },
      "startVotingSession()": {
        "details": "Start the voting session."
      },
      "stopProposalSession()": {
        "details": "Stop registering proposals and change the status to ProposalsRegistrationEnded"
      },
      "stopVotingSession()": {
        "details": "Stop the voting session."
      },
      "transferOwnership(address)": {
        "details": "Transfers ownership of the contract to a new account (`newOwner`). Can only be called by the current owner."
      },
      "votesResult()": {
        "details": "Score the voting session."
      }
    },
    "title": "Voting contract",
    "version": 1
  },
  "userdoc": {
    "kind": "user",
    "methods": {
      "votesResult()": {
        "notice": "votesResult calculates votes and emit the event of status change to VotesTallied"
      },
      "workflowCurrentStatus()": {
        "notice": "Initial state - beginning of session with registering voters"
      }
    },
    "notice": "Alyra school exercise",
    "version": 1
  }
}