{
  "contractName": "VotingA",
  "abi": [
    {
      "anonymous": false,
      "inputs": [
        {
          "indexed": true,
          "internalType": "address",
          "name": "previousOwner",
          "type": "address"
        },
        {
          "indexed": true,
          "internalType": "address",
          "name": "newOwner",
          "type": "address"
        }
      ],
      "name": "OwnershipTransferred",
      "type": "event"
    },
    {
      "anonymous": false,
      "inputs": [
        {
          "indexed": false,
          "internalType": "uint256",
          "name": "proposalId",
          "type": "uint256"
        }
      ],
      "name": "ProposalRegistered",
      "type": "event"
    },
    {
      "anonymous": false,
      "inputs": [
        {
          "indexed": false,
          "internalType": "address",
          "name": "voter",
          "type": "address"
        },
        {
          "indexed": false,
          "internalType": "uint256",
          "name": "proposalId",
          "type": "uint256"
        }
      ],
      "name": "Voted",
      "type": "event"
    },
    {
      "anonymous": false,
      "inputs": [
        {
          "indexed": false,
          "internalType": "address",
          "name": "voterAddress",
          "type": "address"
        }
      ],
      "name": "VoterRegistered",
      "type": "event"
    },
    {
      "anonymous": false,
      "inputs": [
        {
          "indexed": false,
          "internalType": "string",
          "name": "name",
          "type": "string"
        },
        {
          "indexed": false,
          "internalType": "uint256",
          "name": "votes",
          "type": "uint256"
        }
      ],
      "name": "Winner",
      "type": "event"
    },
    {
      "anonymous": false,
      "inputs": [
        {
          "indexed": false,
          "internalType": "enum VotingA.WorkflowStatus",
          "name": "previousStatus",
          "type": "uint8"
        },
        {
          "indexed": false,
          "internalType": "enum VotingA.WorkflowStatus",
          "name": "newStatus",
          "type": "uint8"
        }
      ],
      "name": "WorkflowStatusChange",
      "type": "event"
    },
    {
      "inputs": [],
      "name": "owner",
      "outputs": [
        {
          "internalType": "address",
          "name": "",
          "type": "address"
        }
      ],
      "stateMutability": "view",
      "type": "function",
      "constant": true
    },
    {
      "inputs": [],
      "name": "renounceOwnership",
      "outputs": [],
      "stateMutability": "nonpayable",
      "type": "function"
    },
    {
      "inputs": [
        {
          "internalType": "address",
          "name": "newOwner",
          "type": "address"
        }
      ],
      "name": "transferOwnership",
      "outputs": [],
      "stateMutability": "nonpayable",
      "type": "function"
    },
    {
      "inputs": [],
      "name": "winningProposalId",
      "outputs": [
        {
          "internalType": "uint256",
          "name": "",
          "type": "uint256"
        }
      ],
      "stateMutability": "view",
      "type": "function",
      "constant": true
    },
    {
      "inputs": [],
      "name": "changeStatus",
      "outputs": [],
      "stateMutability": "nonpayable",
      "type": "function"
    },
    {
      "inputs": [
        {
          "internalType": "address",
          "name": "_address",
          "type": "address"
        }
      ],
      "name": "registerVoter",
      "outputs": [],
      "stateMutability": "nonpayable",
      "type": "function"
    },
    {
      "inputs": [],
      "name": "endVoterRegistration",
      "outputs": [],
      "stateMutability": "nonpayable",
      "type": "function"
    },
    {
      "inputs": [
        {
          "internalType": "string",
          "name": "_name",
          "type": "string"
        }
      ],
      "name": "addProposal",
      "outputs": [],
      "stateMutability": "nonpayable",
      "type": "function"
    },
    {
      "inputs": [],
      "name": "endProposalRegistration",
      "outputs": [],
      "stateMutability": "nonpayable",
      "type": "function"
    },
    {
      "inputs": [],
      "name": "startVoting",
      "outputs": [],
      "stateMutability": "nonpayable",
      "type": "function"
    },
    {
      "inputs": [
        {
          "internalType": "uint256",
          "name": "_proposalId",
          "type": "uint256"
        }
      ],
      "name": "vote",
      "outputs": [],
      "stateMutability": "nonpayable",
      "type": "function"
    },
    {
      "inputs": [],
      "name": "endVoting",
      "outputs": [],
      "stateMutability": "nonpayable",
      "type": "function"
    },
    {
      "inputs": [],
      "name": "tallingVotes",
      "outputs": [],
      "stateMutability": "nonpayable",
      "type": "function"
    },
    {
      "inputs": [],
      "name": "getWinner",
      "outputs": [],
      "stateMutability": "nonpayable",
      "type": "function"
    }
  ],
  "bytecode": "0x608060405260006001556000600360006101000a81548160ff0219169083600581111562000032576200003162000137565b5b02179055503480156200004457600080fd5b5062000065620000596200006b60201b60201c565b6200007360201b60201c565b62000166565b600033905090565b60008060009054906101000a900473ffffffffffffffffffffffffffffffffffffffff169050816000806101000a81548173ffffffffffffffffffffffffffffffffffffffff021916908373ffffffffffffffffffffffffffffffffffffffff1602179055508173ffffffffffffffffffffffffffffffffffffffff168173ffffffffffffffffffffffffffffffffffffffff167f8be0079c531659141344cd1fd0a4f28419497f9722a3daafe3b4186f6b6457e060405160405180910390a35050565b7f4e487b7100000000000000000000000000000000000000000000000000000000600052602160045260246000fd5b611d2d80620001766000396000f3fe608060405234801561001057600080fd5b50600436106100ea5760003560e01c80637f6b21a01161008c578063c3403ddf11610066578063c3403ddf1461019d578063c64963c5146101a7578063e85a8f2a146101c5578063f2fde38b146101cf576100ea565b80637f6b21a01461016b5780638da5cb5b146101755780638e7ea5b214610193576100ea565b80632d47ffb1116100c85780632d47ffb11461011f5780632fdae3c51461012957806338db6dd314610145578063715018a614610161576100ea565b80630121b93f146100ef578063085634ec1461010b5780631ec6b60a14610115575b600080fd5b610109600480360381019061010491906113ef565b6101eb565b005b61011361047a565b005b61011d6105dd565b005b6101276106a5565b005b610143600480360381019061013e91906113a6565b61081d565b005b61015f600480360381019061015a9190611379565b6109f5565b005b610169610c31565b005b610173610cb9565b005b61017d610d81565b60405161018a919061163d565b60405180910390f35b61019b610daa565b005b6101a5610e9b565b005b6101af610f63565b6040516101bc919061181c565b60405180910390f35b6101cd610f69565b005b6101e960048036038101906101e49190611379565b611031565b005b3360011515600560008373ffffffffffffffffffffffffffffffffffffffff1673ffffffffffffffffffffffffffffffffffffffff16815260200190815260200160002060000160009054906101000a900460ff16151514610282576040517f08c379a0000000000000000000000000000000000000000000000000000000008152600401610279906117bc565b60405180910390fd5b600380600581111561029757610296611a92565b5b600360009054906101000a900460ff1660058111156102b9576102b8611a92565b5b146102c357600080fd5b600560003373ffffffffffffffffffffffffffffffffffffffff1673ffffffffffffffffffffffffffffffffffffffff16815260200190815260200160002060000160019054906101000a900460ff1615610353576040517f08c379a000000000000000000000000000000000000000000000000000000000815260040161034a906117fc565b60405180910390fd5b60008311801561036557506001548311155b61036e57600080fd5b6001600560003373ffffffffffffffffffffffffffffffffffffffff1673ffffffffffffffffffffffffffffffffffffffff16815260200190815260200160002060000160016101000a81548160ff02191690831515021790555082600560003373ffffffffffffffffffffffffffffffffffffffff1673ffffffffffffffffffffffffffffffffffffffff1681526020019081526020016000206001018190555060046000848152602001908152602001600020600101600081548092919061043790611a1a565b91905055507f4d99b957a2bc29a30ebd96a7be8e68fe50a3c701db28a91436490b7d53870ca4338460405161046d929190611658565b60405180910390a1505050565b610482611129565b73ffffffffffffffffffffffffffffffffffffffff166104a0610d81565b73ffffffffffffffffffffffffffffffffffffffff16146104f6576040517f08c379a00000000000000000000000000000000000000000000000000000000081526004016104ed9061173c565b60405180910390fd5b6005600360009054906101000a900460ff16600581111561051a57610519611a92565b5b111561055b576040517f08c379a0000000000000000000000000000000000000000000000000000000008152600401610552906117dc565b60405180910390fd5b7f0a97a4ee45751e2abf3e4fc8946939630b11b371ea8ae39ccdc3056e98f5cc3f600360009054906101000a900460ff16610594611131565b6040516105a2929190611681565b60405180910390a16105b2611131565b600360006101000a81548160ff021916908360058111156105d6576105d5611a92565b5b0217905550565b6105e5611129565b73ffffffffffffffffffffffffffffffffffffffff16610603610d81565b73ffffffffffffffffffffffffffffffffffffffff1614610659576040517f08c379a00000000000000000000000000000000000000000000000000000000081526004016106509061173c565b60405180910390fd5b600280600581111561066e5761066d611a92565b5b600360009054906101000a900460ff1660058111156106905761068f611a92565b5b1461069a57600080fd5b6106a261047a565b50565b6106ad611129565b73ffffffffffffffffffffffffffffffffffffffff166106cb610d81565b73ffffffffffffffffffffffffffffffffffffffff1614610721576040517f08c379a00000000000000000000000000000000000000000000000000000000081526004016107189061173c565b60405180910390fd5b600480600581111561073657610735611a92565b5b600360009054906101000a900460ff16600581111561075857610757611a92565b5b1461076257600080fd5b6000600154116107a7576040517f08c379a000000000000000000000000000000000000000000000000000000000815260040161079e9061171c565b60405180910390fd5b60008080600090505b6001548110156108085782600460008381526020019081526020016000206001015411156107f557600460008281526020019081526020016000206001015492508091505b808061080090611a1a565b9150506107b0565b508060028190555061081861047a565b505050565b3360011515600560008373ffffffffffffffffffffffffffffffffffffffff1673ffffffffffffffffffffffffffffffffffffffff16815260200190815260200160002060000160009054906101000a900460ff161515146108b4576040517f08c379a00000000000000000000000000000000000000000000000000000000081526004016108ab906117bc565b60405180910390fd5b60018060058111156108c9576108c8611a92565b5b600360009054906101000a900460ff1660058111156108eb576108ea611a92565b5b146108f557600080fd5b6040516020016109049061179c565b604051602081830303815290604052805190602001208360405160200161092b91906116aa565b60405160208183030381529060405280519060200120141561094c57600080fd5b60405180604001604052808481526020016000815250600460006001548152602001908152602001600020600082015181600001908051906020019061099392919061123c565b50602082015181600101559050507f92e393e9b54e2f801d3ea4beb0c5e71a21cc34a5d34b77d0fb8a3aa1650dc18f6001546040516109d2919061181c565b60405180910390a16001600081546109e990611a1a565b91905081905550505050565b6109fd611129565b73ffffffffffffffffffffffffffffffffffffffff16610a1b610d81565b73ffffffffffffffffffffffffffffffffffffffff1614610a71576040517f08c379a0000000000000000000000000000000000000000000000000000000008152600401610a689061173c565b60405180910390fd5b6000806005811115610a8657610a85611a92565b5b600360009054906101000a900460ff166005811115610aa857610aa7611a92565b5b14610ab257600080fd5b60001515600560008473ffffffffffffffffffffffffffffffffffffffff1673ffffffffffffffffffffffffffffffffffffffff16815260200190815260200160002060000160009054906101000a900460ff16151514610b48576040517f08c379a0000000000000000000000000000000000000000000000000000000008152600401610b3f9061177c565b60405180910390fd5b60405180606001604052806001151581526020016000151581526020016000815250600560008473ffffffffffffffffffffffffffffffffffffffff1673ffffffffffffffffffffffffffffffffffffffff16815260200190815260200160002060008201518160000160006101000a81548160ff02191690831515021790555060208201518160000160016101000a81548160ff021916908315150217905550604082015181600101559050507fb6be2187d059cc2a55fe29e0e503b566e1e0f8c8780096e185429350acffd3dd82604051610c25919061163d565b60405180910390a15050565b610c39611129565b73ffffffffffffffffffffffffffffffffffffffff16610c57610d81565b73ffffffffffffffffffffffffffffffffffffffff1614610cad576040517f08c379a0000000000000000000000000000000000000000000000000000000008152600401610ca49061173c565b60405180910390fd5b610cb76000611178565b565b610cc1611129565b73ffffffffffffffffffffffffffffffffffffffff16610cdf610d81565b73ffffffffffffffffffffffffffffffffffffffff1614610d35576040517f08c379a0000000000000000000000000000000000000000000000000000000008152600401610d2c9061173c565b60405180910390fd5b6000806005811115610d4a57610d49611a92565b5b600360009054906101000a900460ff166005811115610d6c57610d6b611a92565b5b14610d7657600080fd5b610d7e61047a565b50565b60008060009054906101000a900473ffffffffffffffffffffffffffffffffffffffff16905090565b6005806005811115610dbf57610dbe611a92565b5b600360009054906101000a900460ff166005811115610de157610de0611a92565b5b14610deb57600080fd5b600060025411610e30576040517f08c379a0000000000000000000000000000000000000000000000000000000008152600401610e279061175c565b60405180910390fd5b7fec7b07f92bbee36adaa91eaf451da184b543d99b53d1d2f4826d9de4577750d260046000600254815260200190815260200160002060000160046000600254815260200190815260200160002060010154604051610e909291906116cc565b60405180910390a150565b610ea3611129565b73ffffffffffffffffffffffffffffffffffffffff16610ec1610d81565b73ffffffffffffffffffffffffffffffffffffffff1614610f17576040517f08c379a0000000000000000000000000000000000000000000000000000000008152600401610f0e9061173c565b60405180910390fd5b6003806005811115610f2c57610f2b611a92565b5b600360009054906101000a900460ff166005811115610f4e57610f4d611a92565b5b14610f5857600080fd5b610f6061047a565b50565b60025481565b610f71611129565b73ffffffffffffffffffffffffffffffffffffffff16610f8f610d81565b73ffffffffffffffffffffffffffffffffffffffff1614610fe5576040517f08c379a0000000000000000000000000000000000000000000000000000000008152600401610fdc9061173c565b60405180910390fd5b6001806005811115610ffa57610ff9611a92565b5b600360009054906101000a900460ff16600581111561101c5761101b611a92565b5b1461102657600080fd5b61102e61047a565b50565b611039611129565b73ffffffffffffffffffffffffffffffffffffffff16611057610d81565b73ffffffffffffffffffffffffffffffffffffffff16146110ad576040517f08c379a00000000000000000000000000000000000000000000000000000000081526004016110a49061173c565b60405180910390fd5b600073ffffffffffffffffffffffffffffffffffffffff168173ffffffffffffffffffffffffffffffffffffffff16141561111d576040517f08c379a0000000000000000000000000000000000000000000000000000000008152600401611114906116fc565b60405180910390fd5b61112681611178565b50565b600033905090565b60006001600360009054906101000a900460ff16600581111561115757611156611a92565b5b61116191906118be565b600581111561117357611172611a92565b5b905090565b60008060009054906101000a900473ffffffffffffffffffffffffffffffffffffffff169050816000806101000a81548173ffffffffffffffffffffffffffffffffffffffff021916908373ffffffffffffffffffffffffffffffffffffffff1602179055508173ffffffffffffffffffffffffffffffffffffffff168173ffffffffffffffffffffffffffffffffffffffff167f8be0079c531659141344cd1fd0a4f28419497f9722a3daafe3b4186f6b6457e060405160405180910390a35050565b828054611248906119b7565b90600052602060002090601f01602090048101928261126a57600085556112b1565b82601f1061128357805160ff19168380011785556112b1565b828001600101855582156112b1579182015b828111156112b0578251825591602001919060010190611295565b5b5090506112be91906112c2565b5090565b5b808211156112db5760008160009055506001016112c3565b5090565b60006112f26112ed8461185c565b611837565b90508281526020810184848401111561130e5761130d611b24565b5b611319848285611975565b509392505050565b60008135905061133081611cc9565b92915050565b600082601f83011261134b5761134a611b1f565b5b813561135b8482602086016112df565b91505092915050565b60008135905061137381611ce0565b92915050565b60006020828403121561138f5761138e611b2e565b5b600061139d84828501611321565b91505092915050565b6000602082840312156113bc576113bb611b2e565b5b600082013567ffffffffffffffff8111156113da576113d9611b29565b5b6113e684828501611336565b91505092915050565b60006020828403121561140557611404611b2e565b5b600061141384828501611364565b91505092915050565b61142581611914565b82525050565b61143481611963565b82525050565b6000611445826118a2565b61144f81856118ad565b935061145f818560208601611984565b61146881611b33565b840191505092915050565b60008154611480816119b7565b61148a81866118ad565b945060018216600081146114a557600181146114b7576114ea565b60ff19831686526020860193506114ea565b6114c08561188d565b60005b838110156114e2578154818901526001820191506020810190506114c3565b808801955050505b50505092915050565b60006115006026836118ad565b915061150b82611b44565b604082019050919050565b6000611523600c836118ad565b915061152e82611b93565b602082019050919050565b60006115466020836118ad565b915061155182611bbc565b602082019050919050565b60006115696010836118ad565b915061157482611be5565b602082019050919050565b600061158c601b836118ad565b915061159782611c0e565b602082019050919050565b60006115af6000836118ad565b91506115ba82611c37565b600082019050919050565b60006115d2601c836118ad565b91506115dd82611c3a565b602082019050919050565b60006115f56011836118ad565b915061160082611c63565b602082019050919050565b60006116186016836118ad565b915061162382611c8c565b602082019050919050565b61163781611959565b82525050565b6000602082019050611652600083018461141c565b92915050565b600060408201905061166d600083018561141c565b61167a602083018461162e565b9392505050565b6000604082019050611696600083018561142b565b6116a3602083018461142b565b9392505050565b600060208201905081810360008301526116c4818461143a565b905092915050565b600060408201905081810360008301526116e68185611473565b90506116f5602083018461162e565b9392505050565b60006020820190508181036000830152611715816114f3565b9050919050565b6000602082019050818103600083015261173581611516565b9050919050565b6000602082019050818103600083015261175581611539565b9050919050565b600060208201905081810360008301526117758161155c565b9050919050565b600060208201905081810360008301526117958161157f565b9050919050565b600060208201905081810360008301526117b5816115a2565b9050919050565b600060208201905081810360008301526117d5816115c5565b9050919050565b600060208201905081810360008301526117f5816115e8565b9050919050565b600060208201905081810360008301526118158161160b565b9050919050565b6000602082019050611831600083018461162e565b92915050565b6000611841611852565b905061184d82826119e9565b919050565b6000604051905090565b600067ffffffffffffffff82111561187757611876611af0565b5b61188082611b33565b9050602081019050919050565b60008190508160005260206000209050919050565b600081519050919050565b600082825260208201905092915050565b60006118c982611959565b91506118d483611959565b9250827fffffffffffffffffffffffffffffffffffffffffffffffffffffffffffffffff0382111561190957611908611a63565b5b828201905092915050565b600061191f82611939565b9050919050565b600081905061193482611cb5565b919050565b600073ffffffffffffffffffffffffffffffffffffffff82169050919050565b6000819050919050565b600061196e82611926565b9050919050565b82818337600083830152505050565b60005b838110156119a2578082015181840152602081019050611987565b838111156119b1576000848401525b50505050565b600060028204905060018216806119cf57607f821691505b602082108114156119e3576119e2611ac1565b5b50919050565b6119f282611b33565b810181811067ffffffffffffffff82111715611a1157611a10611af0565b5b80604052505050565b6000611a2582611959565b91507fffffffffffffffffffffffffffffffffffffffffffffffffffffffffffffffff821415611a5857611a57611a63565b5b600182019050919050565b7f4e487b7100000000000000000000000000000000000000000000000000000000600052601160045260246000fd5b7f4e487b7100000000000000000000000000000000000000000000000000000000600052602160045260246000fd5b7f4e487b7100000000000000000000000000000000000000000000000000000000600052602260045260246000fd5b7f4e487b7100000000000000000000000000000000000000000000000000000000600052604160045260246000fd5b600080fd5b600080fd5b600080fd5b600080fd5b6000601f19601f8301169050919050565b7f4f776e61626c653a206e6577206f776e657220697320746865207a65726f206160008201527f6464726573730000000000000000000000000000000000000000000000000000602082015250565b7f4e6f2070726f706f73616c730000000000000000000000000000000000000000600082015250565b7f4f776e61626c653a2063616c6c6572206973206e6f7420746865206f776e6572600082015250565b7f57696e6e6572206e6f7420666f756e6400000000000000000000000000000000600082015250565b7f566f74657220697320616c726561647920726567697374657265640000000000600082015250565b50565b7f49742773206e6f742061207265676973746572656420766f7465722100000000600082015250565b7f566f74696e6720636f6d706c6574656421000000000000000000000000000000600082015250565b7f596f75206861766520616c726561647920766f74656400000000000000000000600082015250565b60068110611cc657611cc5611a92565b5b50565b611cd281611914565b8114611cdd57600080fd5b50565b611ce981611959565b8114611cf457600080fd5b5056fea2646970667358221220606fe928c46eb38e5f95624854e8e60c3733e634272804c3f902172f6d94085664736f6c63430008070033",
  "immutableReferences": {},
  "source": "// contracts/Voting.sol\n// SPDX-License-Identifier: MIT\n\npragma solidity 0.8.7;\n\nimport \"../node_modules/@openzeppelin/contracts/access/Ownable.sol\";\n\n/// @title Voting System contract\n/// @author Aleksandra Kojic\n/// @notice You can use this contract for only testing and playing\n/// @dev All function calls are currently implemented without side effects\n/// @custom:experimental This is an experimental contract.\ncontract VotingA is Ownable {\n    uint256 private totalProposals = 0;\n    uint256 public winningProposalId;\n\n    struct Voter {\n        bool isRegistered;\n        bool hasVoted;\n        uint256 votedProposalId;\n    }\n    struct Proposal {\n        string description;\n        uint256 voteCount;\n    }\n    enum WorkflowStatus {\n        RegisteringVoters,\n        ProposalsRegistrationStarted,\n        ProposalsRegistrationEnded,\n        VotingSessionStarted,\n        VotingSessionEnded,\n        VotesTallied\n    }\n\n    WorkflowStatus status = WorkflowStatus.RegisteringVoters;\n\n    mapping(uint256 => Proposal) private _proposals;\n    mapping(address => Voter) private _voterWhitelist;\n\n    event VoterRegistered(address voterAddress);\n    event WorkflowStatusChange(\n        WorkflowStatus previousStatus,\n        WorkflowStatus newStatus\n    );\n    event ProposalRegistered(uint256 proposalId);\n    event Voted(address voter, uint256 proposalId);\n    event Winner(string name, uint256 votes);\n\n    /// @notice Modifier verifies the currient step\n    /// @dev Use the modifier on functions that change the data to assure functin trigger on the good status\n    /// @param _status WorkflowStatus of the contract necessaire for function triggering    \n    modifier isStatus(WorkflowStatus _status) {\n        require(status == _status);\n        _;\n    }\n\n    /// @notice Modifier verifies if the address in parameter is the registered voter\n    /// @dev Use the modifier to control the proposal and voting process\n    /// @param _address Voter address    \n    \n    modifier isVoter(address _address) {\n        require(\n            _voterWhitelist[_address].isRegistered == true,\n            \"It's not a registered voter!\"\n        );\n        _;\n    }\n\n    /// @notice Function returns the next step in contract\n    /// @dev Called by change status and returns new step\n    /// @return next WorkflowStatus\n    function nextStatus() internal view returns (WorkflowStatus) {\n        return WorkflowStatus(uint256(status) + 1);\n    }\n\n    /// @notice Function triggered by owner to proceed on the next step\n    /// @dev Function implementation allows just forwarding to the next voting phase \n\n    function changeStatus() public onlyOwner {\n        require(uint256(status) <= 5, \"Voting completed!\");\n        emit WorkflowStatusChange(status, nextStatus());\n        status = nextStatus();\n    }\n\n    /// @notice Register, initialize and emits event of registered voter\n    /// @dev Called by owner if status is RegisteringVoters\n    function registerVoter(address _address)\n        public\n        onlyOwner\n        isStatus(WorkflowStatus.RegisteringVoters)\n    {\n        require(\n            _voterWhitelist[_address].isRegistered == false,\n            \"Voter is already registered\"\n        );\n        _voterWhitelist[_address] = Voter(true, false, 0);\n        emit VoterRegistered(_address);\n    }\n\n    /// @notice Functions ends registration voter session and sets status on next session\n    function endVoterRegistration()\n        public\n        onlyOwner\n        isStatus(WorkflowStatus.RegisteringVoters)\n    {\n        changeStatus();\n    }\n\n    /// @notice Register and initialize proposals of voters\n    /// @dev Sends an event of proposal Id\n    function addProposal(string memory _name)\n        public\n        isVoter(msg.sender)\n        isStatus(WorkflowStatus.ProposalsRegistrationStarted)\n    {\n        require(keccak256(abi.encode(_name)) != keccak256(abi.encode(\"\")));\n        _proposals[totalProposals] = Proposal(_name, 0);\n        emit ProposalRegistered(totalProposals);\n        ++totalProposals;\n    }\n\n    /// @notice Functions ends proposal registrationg session\n    function endProposalRegistration()\n        public\n        onlyOwner\n        isStatus(WorkflowStatus.ProposalsRegistrationStarted)\n    {\n        changeStatus();\n    }\n\n    /// @notice Sets the status and launch the voting session\n    function startVoting()\n        public\n        onlyOwner\n        isStatus(WorkflowStatus.ProposalsRegistrationEnded)\n    {\n        changeStatus();\n    }\n\n    /// @notice Register votes on proposals and emit event with voter and proosal id\n    /// @dev Only register voter can vote and his choice is registered\n    function vote(uint256 _proposalId)\n        public\n        isVoter(msg.sender)\n        isStatus(WorkflowStatus.VotingSessionStarted)\n    {\n        require(\n            !_voterWhitelist[msg.sender].hasVoted,\n            \"You have already voted\"\n        );\n\n        require(_proposalId > 0 && _proposalId <= totalProposals);\n\n        // record vote\n        _voterWhitelist[msg.sender].hasVoted = true;\n        _voterWhitelist[msg.sender].votedProposalId = _proposalId;\n\n        // update candidate vote number\n        _proposals[_proposalId].voteCount++;\n\n        // voted event\n        emit Voted(msg.sender, _proposalId);\n    }\n\n\n    /// @notice Ends voting seesion\n    function endVoting()\n        public\n        onlyOwner\n        isStatus(WorkflowStatus.VotingSessionStarted)\n    {\n        changeStatus();\n    }\n\n    /// @notice Count votes on proposals and switch to the next status\n    /// @dev Can be called just by owner if voting session is ended\n    function tallingVotes()\n        public\n        onlyOwner\n        isStatus(WorkflowStatus.VotingSessionEnded)\n    {\n        require(totalProposals > 0, \"No proposals\");\n        uint256 winningVoteCount = 0;\n        uint256 _winningProposalId;\n\n        for (uint256 p = 0; p < totalProposals; p++) {\n            if (_proposals[p].voteCount > winningVoteCount) {\n                winningVoteCount = _proposals[p].voteCount;\n                _winningProposalId = p;\n            }\n        }\n        winningProposalId = _winningProposalId;\n        changeStatus();\n    }\n\n    // function getWinner()\n    //     external\n    //     view\n    //     isStatus(WorkflowStatus.VotesTallied)\n    //     returns (string memory winnerDescription_, uint256 voteNumber_)\n    // {\n    //     require(winningProposalId > 0, \"Winner not found\");\n    //     winnerDescription_ = _proposals[winningProposalId].description;\n    //     voteNumber_ = _proposals[winningProposalId].voteCount;\n    //     return (\n    //         winnerDescription_,\n    //         voteNumber_\n    //     );\n    // }\n\n    /// @notice Emits the winner and his vote number\n    function getWinner()\n        external\n        isStatus(WorkflowStatus.VotesTallied)\n    {\n        require(winningProposalId > 0, \"Winner not found\");\n        emit Winner( _proposals[winningProposalId].description, _proposals[winningProposalId].voteCount);\n    }\n}\n",
  "sourcePath": "/home/kojche/Documents/projects/alyra/courseCode/Developpeur-Ethereum-Template/6_Dapp/unbox-react/contracts/VotingA.sol",
  "compiler": {
    "name": "solc",
    "version": "0.8.7+commit.e28d00a7.Emscripten.clang"
  },
  "schemaVersion": "3.4.3",
  "updatedAt": "2021-12-02T11:41:46.921Z",
  "networkType": "ethereum",
  "devdoc": {
    "author": "Aleksandra Kojic",
    "custom:experimental": "This is an experimental contract.",
    "details": "All function calls are currently implemented without side effects",
    "kind": "dev",
    "methods": {
      "addProposal(string)": {
        "details": "Sends an event of proposal Id"
      },
      "changeStatus()": {
        "details": "Function implementation allows just forwarding to the next voting phase "
      },
      "owner()": {
        "details": "Returns the address of the current owner."
      },
      "registerVoter(address)": {
        "details": "Called by owner if status is RegisteringVoters"
      },
      "renounceOwnership()": {
        "details": "Leaves the contract without owner. It will not be possible to call `onlyOwner` functions anymore. Can only be called by the current owner. NOTE: Renouncing ownership will leave the contract without an owner, thereby removing any functionality that is only available to the owner."
      },
      "tallingVotes()": {
        "details": "Can be called just by owner if voting session is ended"
      },
      "transferOwnership(address)": {
        "details": "Transfers ownership of the contract to a new account (`newOwner`). Can only be called by the current owner."
      },
      "vote(uint256)": {
        "details": "Only register voter can vote and his choice is registered"
      }
    },
    "title": "Voting System contract",
    "version": 1
  },
  "userdoc": {
    "kind": "user",
    "methods": {
      "addProposal(string)": {
        "notice": "Register and initialize proposals of voters"
      },
      "changeStatus()": {
        "notice": "Function triggered by owner to proceed on the next step"
      },
      "endProposalRegistration()": {
        "notice": "Functions ends proposal registrationg session"
      },
      "endVoterRegistration()": {
        "notice": "Functions ends registration voter session and sets status on next session"
      },
      "endVoting()": {
        "notice": "Ends voting seesion"
      },
      "getWinner()": {
        "notice": "Emits the winner and his vote number"
      },
      "registerVoter(address)": {
        "notice": "Register, initialize and emits event of registered voter"
      },
      "startVoting()": {
        "notice": "Sets the status and launch the voting session"
      },
      "tallingVotes()": {
        "notice": "Count votes on proposals and switch to the next status"
      },
      "vote(uint256)": {
        "notice": "Register votes on proposals and emit event with voter and proosal id"
      }
    },
    "notice": "You can use this contract for only testing and playing",
    "version": 1
  }
}