{
  "contractName": "Gartic",
  "abi": [
    {
      "anonymous": false,
      "inputs": [
        {
          "indexed": true,
          "internalType": "address",
          "name": "previousOwner",
          "type": "address"
        },
        {
          "indexed": true,
          "internalType": "address",
          "name": "newOwner",
          "type": "address"
        }
      ],
      "name": "OwnershipTransferred",
      "type": "event"
    },
    {
      "anonymous": false,
      "inputs": [
        {
          "indexed": false,
          "internalType": "string",
          "name": "firstWord",
          "type": "string"
        },
        {
          "indexed": false,
          "internalType": "string",
          "name": "lastWord",
          "type": "string"
        },
        {
          "indexed": false,
          "internalType": "address",
          "name": "winnerAddr",
          "type": "address"
        }
      ],
      "name": "finalResults",
      "type": "event"
    },
    {
      "anonymous": false,
      "inputs": [
        {
          "indexed": false,
          "internalType": "address",
          "name": "player",
          "type": "address"
        },
        {
          "indexed": false,
          "internalType": "string",
          "name": "word",
          "type": "string"
        }
      ],
      "name": "newWord",
      "type": "event"
    },
    {
      "anonymous": false,
      "inputs": [
        {
          "indexed": false,
          "internalType": "enum Gartic.State",
          "name": "enCours",
          "type": "uint8"
        }
      ],
      "name": "stateChanged",
      "type": "event"
    },
    {
      "inputs": [],
      "name": "owner",
      "outputs": [
        {
          "internalType": "address",
          "name": "",
          "type": "address"
        }
      ],
      "stateMutability": "view",
      "type": "function"
    },
    {
      "inputs": [],
      "name": "renounceOwnership",
      "outputs": [],
      "stateMutability": "nonpayable",
      "type": "function"
    },
    {
      "inputs": [
        {
          "internalType": "address",
          "name": "newOwner",
          "type": "address"
        }
      ],
      "name": "transferOwnership",
      "outputs": [],
      "stateMutability": "nonpayable",
      "type": "function"
    },
    {
      "inputs": [
        {
          "internalType": "string",
          "name": "_newWord",
          "type": "string"
        }
      ],
      "name": "StoreWord",
      "outputs": [],
      "stateMutability": "nonpayable",
      "type": "function"
    },
    {
      "inputs": [],
      "name": "GetWords",
      "outputs": [
        {
          "internalType": "string[]",
          "name": "",
          "type": "string[]"
        }
      ],
      "stateMutability": "view",
      "type": "function"
    },
    {
      "inputs": [],
      "name": "GetLastWord",
      "outputs": [
        {
          "internalType": "string",
          "name": "",
          "type": "string"
        }
      ],
      "stateMutability": "view",
      "type": "function"
    },
    {
      "inputs": [],
      "name": "getFirstLast",
      "outputs": [
        {
          "internalType": "string",
          "name": "first",
          "type": "string"
        },
        {
          "internalType": "string",
          "name": "last",
          "type": "string"
        }
      ],
      "stateMutability": "nonpayable",
      "type": "function"
    },
    {
      "inputs": [
        {
          "internalType": "string",
          "name": "_word",
          "type": "string"
        }
      ],
      "name": "guessIt",
      "outputs": [
        {
          "internalType": "address",
          "name": "",
          "type": "address"
        }
      ],
      "stateMutability": "nonpayable",
      "type": "function"
    },
    {
      "inputs": [],
      "name": "getResults",
      "outputs": [],
      "stateMutability": "nonpayable",
      "type": "function"
    },
    {
      "inputs": [],
      "name": "resetGame",
      "outputs": [],
      "stateMutability": "nonpayable",
      "type": "function"
    }
  ],
  "bytecode": "0x60806040526000600360146101000a81548160ff021916908360028111156200002d576200002c62000132565b5b02179055503480156200003f57600080fd5b5062000060620000546200006660201b60201c565b6200006e60201b60201c565b62000161565b600033905090565b60008060009054906101000a900473ffffffffffffffffffffffffffffffffffffffff169050816000806101000a81548173ffffffffffffffffffffffffffffffffffffffff021916908373ffffffffffffffffffffffffffffffffffffffff1602179055508173ffffffffffffffffffffffffffffffffffffffff168173ffffffffffffffffffffffffffffffffffffffff167f8be0079c531659141344cd1fd0a4f28419497f9722a3daafe3b4186f6b6457e060405160405180910390a35050565b7f4e487b7100000000000000000000000000000000000000000000000000000000600052602160045260246000fd5b611e4b80620001716000396000f3fe608060405234801561001057600080fd5b506004361061009e5760003560e01c8063bb47221911610066578063bb47221914610124578063d2327c9b1461012e578063d80ade3f1461014a578063d86b94b214610168578063f2fde38b146101865761009e565b80633ae38e4a146100a35780634717f97c146100c2578063715018a6146100cc5780638da5cb5b146100d6578063b905626c146100f4575b600080fd5b6100ab6101a2565b6040516100b99291906117ca565b60405180910390f35b6100ca610466565b005b6100d4610576565b005b6100de6105fe565b6040516100eb9190611720565b60405180910390f35b61010e6004803603810190610109919061136b565b610627565b60405161011b9190611720565b60405180910390f35b61012c6107f6565b005b6101486004803603810190610143919061136b565b6109c8565b005b610152610cba565b60405161015f91906117a8565b60405180910390f35b610170610d9c565b60405161017d919061176b565b60405180910390f35b6101a0600480360381019061019b919061133e565b610ef1565b005b6060806101ad610fe9565b73ffffffffffffffffffffffffffffffffffffffff166101cb6105fe565b73ffffffffffffffffffffffffffffffffffffffff1614610221576040517f08c379a0000000000000000000000000000000000000000000000000000000008152600401610218906118a6565b60405180910390fd5b6001600281111561023557610234611b95565b5b600360149054906101000a900460ff16600281111561025757610256611b95565b5b14610297576040517f08c379a000000000000000000000000000000000000000000000000000000000815260040161028e90611906565b60405180910390fd5b6002600360146101000a81548160ff021916908360028111156102bd576102bc611b95565b5b02179055507f60a4a1bc10ae890f497872511943e85041b8c9f7f80b041024eb3b0b6b129378600360149054906101000a900460ff16604051610300919061178d565b60405180910390a1600160008154811061031d5761031c611c22565b5b90600052602060002001600160138154811061033c5761033b611c22565b5b9060005260206000200181805461035290611b03565b80601f016020809104026020016040519081016040528092919081815260200182805461037e90611b03565b80156103cb5780601f106103a0576101008083540402835291602001916103cb565b820191906000526020600020905b8154815290600101906020018083116103ae57829003601f168201915b505050505091508080546103de90611b03565b80601f016020809104026020016040519081016040528092919081815260200182805461040a90611b03565b80156104575780601f1061042c57610100808354040283529160200191610457565b820191906000526020600020905b81548152906001019060200180831161043a57829003601f168201915b50505050509050915091509091565b60028081111561047957610478611b95565b5b600360149054906101000a900460ff16600281111561049b5761049a611b95565b5b146104db576040517f08c379a00000000000000000000000000000000000000000000000000000000081526004016104d290611906565b60405180910390fd5b7fd7f7c9f7774a37e7b1f48f511e3f1ff75e6281152a653f1212f87be93f859b21600160008154811061051157610510611c22565b5b9060005260206000200160016013815481106105305761052f611c22565b5b90600052602060002001600360009054906101000a900473ffffffffffffffffffffffffffffffffffffffff1660405161056c93929190611801565b60405180910390a1565b61057e610fe9565b73ffffffffffffffffffffffffffffffffffffffff1661059c6105fe565b73ffffffffffffffffffffffffffffffffffffffff16146105f2576040517f08c379a00000000000000000000000000000000000000000000000000000000081526004016105e9906118a6565b60405180910390fd5b6105fc6000610ff1565b565b60008060009054906101000a900473ffffffffffffffffffffffffffffffffffffffff16905090565b60006001600281111561063d5761063c611b95565b5b600360149054906101000a900460ff16600281111561065f5761065e611b95565b5b1461069f576040517f08c379a000000000000000000000000000000000000000000000000000000000815260040161069690611886565b60405180910390fd5b60016000815481106106b4576106b3611c22565b5b906000526020600020016040516020016106ce9190611709565b60405160208183030381529060405280519060200120826040516020016106f591906116f2565b604051602081830303815290604052805190602001201461071957600090506107f1565b33600360006101000a81548173ffffffffffffffffffffffffffffffffffffffff021916908373ffffffffffffffffffffffffffffffffffffffff1602179055506002600360146101000a81548160ff021916908360028111156107805761077f611b95565b5b02179055507f60a4a1bc10ae890f497872511943e85041b8c9f7f80b041024eb3b0b6b129378600360149054906101000a900460ff166040516107c3919061178d565b60405180910390a1600360009054906101000a900473ffffffffffffffffffffffffffffffffffffffff1690505b919050565b6107fe610fe9565b73ffffffffffffffffffffffffffffffffffffffff1661081c6105fe565b73ffffffffffffffffffffffffffffffffffffffff1614610872576040517f08c379a0000000000000000000000000000000000000000000000000000000008152600401610869906118a6565b60405180910390fd5b60028081111561088557610884611b95565b5b600360149054906101000a900460ff1660028111156108a7576108a6611b95565b5b146108e7576040517f08c379a00000000000000000000000000000000000000000000000000000000081526004016108de90611906565b60405180910390fd5b6000600360146101000a81548160ff0219169083600281111561090d5761090c611b95565b5b02179055507f60a4a1bc10ae890f497872511943e85041b8c9f7f80b041024eb3b0b6b129378600360149054906101000a900460ff16604051610950919061178d565b60405180910390a16000601390505b600081141561097b57808061097390611ad9565b91505061095f565b506000600360006101000a81548173ffffffffffffffffffffffffffffffffffffffff021916908373ffffffffffffffffffffffffffffffffffffffff1602179055506109c66110b5565b565b600060028111156109dc576109db611b95565b5b600360149054906101000a900460ff1660028111156109fe576109fd611b95565b5b14610a3e576040517f08c379a0000000000000000000000000000000000000000000000000000000008152600401610a35906118e6565b60405180910390fd5b610a46610cba565b604051602001610a5691906116f2565b6040516020818303038152906040528051906020012081604051602001610a7d91906116f2565b604051602081830303815290604052805190602001201415610ad4576040517f08c379a0000000000000000000000000000000000000000000000000000000008152600401610acb90611866565b60405180910390fd5b600260003373ffffffffffffffffffffffffffffffffffffffff1673ffffffffffffffffffffffffffffffffffffffff16815260200190815260200160002060009054906101000a900460ff1615610b61576040517f08c379a0000000000000000000000000000000000000000000000000000000008152600401610b58906118c6565b60405180910390fd5b600181908060018154018082558091505060019003906000526020600020016000909190919091509080519060200190610b9c929190611216565b50610ba6336111b0565b7fc37e000d2c96dad92bebce0c293504474b70916b1edfb3a6f854d4578a2807483382604051610bd792919061173b565b60405180910390a16001600260003373ffffffffffffffffffffffffffffffffffffffff1673ffffffffffffffffffffffffffffffffffffffff16815260200190815260200160002060006101000a81548160ff02191690831515021790555060146001805490501415610cb7576001600360146101000a81548160ff02191690836002811115610c6b57610c6a611b95565b5b02179055507f60a4a1bc10ae890f497872511943e85041b8c9f7f80b041024eb3b0b6b129378600360149054906101000a900460ff16604051610cae919061178d565b60405180910390a15b50565b6060600060018054905014610d86576001808080549050610cdb9190611a02565b81548110610cec57610ceb611c22565b5b906000526020600020018054610d0190611b03565b80601f0160208091040260200160405190810160405280929190818152602001828054610d2d90611b03565b8015610d7a5780601f10610d4f57610100808354040283529160200191610d7a565b820191906000526020600020905b815481529060010190602001808311610d5d57829003601f168201915b50505050509050610d99565b6040518060200160405280600081525090505b90565b6060610da6610fe9565b73ffffffffffffffffffffffffffffffffffffffff16610dc46105fe565b73ffffffffffffffffffffffffffffffffffffffff1614610e1a576040517f08c379a0000000000000000000000000000000000000000000000000000000008152600401610e11906118a6565b60405180910390fd5b6001805480602002602001604051908101604052809291908181526020016000905b82821015610ee8578382906000526020600020018054610e5b90611b03565b80601f0160208091040260200160405190810160405280929190818152602001828054610e8790611b03565b8015610ed45780601f10610ea957610100808354040283529160200191610ed4565b820191906000526020600020905b815481529060010190602001808311610eb757829003601f168201915b505050505081526020019060010190610e3c565b50505050905090565b610ef9610fe9565b73ffffffffffffffffffffffffffffffffffffffff16610f176105fe565b73ffffffffffffffffffffffffffffffffffffffff1614610f6d576040517f08c379a0000000000000000000000000000000000000000000000000000000008152600401610f64906118a6565b60405180910390fd5b600073ffffffffffffffffffffffffffffffffffffffff168173ffffffffffffffffffffffffffffffffffffffff161415610fdd576040517f08c379a0000000000000000000000000000000000000000000000000000000008152600401610fd490611846565b60405180910390fd5b610fe681610ff1565b50565b600033905090565b60008060009054906101000a900473ffffffffffffffffffffffffffffffffffffffff169050816000806101000a81548173ffffffffffffffffffffffffffffffffffffffff021916908373ffffffffffffffffffffffffffffffffffffffff1602179055508173ffffffffffffffffffffffffffffffffffffffff168173ffffffffffffffffffffffffffffffffffffffff167f8be0079c531659141344cd1fd0a4f28419497f9722a3daafe3b4186f6b6457e060405160405180910390a35050565b6000601390505b60008114156111ad576000151560026000600484815481106110e1576110e0611c22565b5b9060005260206000200160009054906101000a900473ffffffffffffffffffffffffffffffffffffffff1673ffffffffffffffffffffffffffffffffffffffff1673ffffffffffffffffffffffffffffffffffffffff16815260200190815260200160002060009054906101000a90505050600480548061116557611164611bf3565b5b6001900381819060005260206000200160006101000a81549073ffffffffffffffffffffffffffffffffffffffff0219169055905580806111a590611ad9565b9150506110bc565b50565b6004819080600181540180825580915050600190039060005260206000200160009091909190916101000a81548173ffffffffffffffffffffffffffffffffffffffff021916908373ffffffffffffffffffffffffffffffffffffffff16021790555050565b82805461122290611b03565b90600052602060002090601f016020900481019282611244576000855561128b565b82601f1061125d57805160ff191683800117855561128b565b8280016001018555821561128b579182015b8281111561128a57825182559160200191906001019061126f565b5b509050611298919061129c565b5090565b5b808211156112b557600081600090555060010161129d565b5090565b60006112cc6112c78461194b565b611926565b9050828152602081018484840111156112e8576112e7611c85565b5b6112f3848285611a97565b509392505050565b60008135905061130a81611dfe565b92915050565b600082601f83011261132557611324611c80565b5b81356113358482602086016112b9565b91505092915050565b60006020828403121561135457611353611c8f565b5b6000611362848285016112fb565b91505092915050565b60006020828403121561138157611380611c8f565b5b600082013567ffffffffffffffff81111561139f5761139e611c8a565b5b6113ab84828501611310565b91505092915050565b60006113c0838361145b565b905092915050565b6113d181611a36565b82525050565b60006113e2826119a1565b6113ec81856119c4565b9350836020820285016113fe8561197c565b8060005b8581101561143a578484038952815161141b85826113b4565b9450611426836119b7565b925060208a01995050600181019050611402565b50829750879550505050505092915050565b61145581611a85565b82525050565b6000611466826119ac565b61147081856119d5565b9350611480818560208601611aa6565b61148981611c94565b840191505092915050565b600061149f826119ac565b6114a981856119e6565b93506114b9818560208601611aa6565b6114c281611c94565b840191505092915050565b60006114d8826119ac565b6114e281856119f7565b93506114f2818560208601611aa6565b80840191505092915050565b6000815461150b81611b03565b61151581866119e6565b94506001821660008114611530576001811461154257611575565b60ff1983168652602086019350611575565b61154b8561198c565b60005b8381101561156d5781548189015260018201915060208101905061154e565b808801955050505b50505092915050565b6000815461158b81611b03565b61159581866119f7565b945060018216600081146115b057600181146115c1576115f4565b60ff198316865281860193506115f4565b6115ca8561198c565b60005b838110156115ec578154818901526001820191506020810190506115cd565b838801955050505b50505092915050565b600061160a6026836119e6565b915061161582611ca5565b604082019050919050565b600061162d6017836119e6565b915061163882611cf4565b602082019050919050565b6000611650601d836119e6565b915061165b82611d1d565b602082019050919050565b60006116736020836119e6565b915061167e82611d46565b602082019050919050565b60006116966012836119e6565b91506116a182611d6f565b602082019050919050565b60006116b9601b836119e6565b91506116c482611d98565b602082019050919050565b60006116dc6013836119e6565b91506116e782611dc1565b602082019050919050565b60006116fe82846114cd565b915081905092915050565b6000611715828461157e565b915081905092915050565b600060208201905061173560008301846113c8565b92915050565b600060408201905061175060008301856113c8565b81810360208301526117628184611494565b90509392505050565b6000602082019050818103600083015261178581846113d7565b905092915050565b60006020820190506117a2600083018461144c565b92915050565b600060208201905081810360008301526117c28184611494565b905092915050565b600060408201905081810360008301526117e48185611494565b905081810360208301526117f88184611494565b90509392505050565b6000606082019050818103600083015261181b81866114fe565b9050818103602083015261182f81856114fe565b905061183e60408301846113c8565b949350505050565b6000602082019050818103600083015261185f816115fd565b9050919050565b6000602082019050818103600083015261187f81611620565b9050919050565b6000602082019050818103600083015261189f81611643565b9050919050565b600060208201905081810360008301526118bf81611666565b9050919050565b600060208201905081810360008301526118df81611689565b9050919050565b600060208201905081810360008301526118ff816116ac565b9050919050565b6000602082019050818103600083015261191f816116cf565b9050919050565b6000611930611941565b905061193c8282611b35565b919050565b6000604051905090565b600067ffffffffffffffff82111561196657611965611c51565b5b61196f82611c94565b9050602081019050919050565b6000819050602082019050919050565b60008190508160005260206000209050919050565b600081519050919050565b600081519050919050565b6000602082019050919050565b600082825260208201905092915050565b600082825260208201905092915050565b600082825260208201905092915050565b600081905092915050565b6000611a0d82611a7b565b9150611a1883611a7b565b925082821015611a2b57611a2a611b66565b5b828203905092915050565b6000611a4182611a5b565b9050919050565b6000819050611a5682611dea565b919050565b600073ffffffffffffffffffffffffffffffffffffffff82169050919050565b6000819050919050565b6000611a9082611a48565b9050919050565b82818337600083830152505050565b60005b83811015611ac4578082015181840152602081019050611aa9565b83811115611ad3576000848401525b50505050565b6000611ae482611a7b565b91506000821415611af857611af7611b66565b5b600182039050919050565b60006002820490506001821680611b1b57607f821691505b60208210811415611b2f57611b2e611bc4565b5b50919050565b611b3e82611c94565b810181811067ffffffffffffffff82111715611b5d57611b5c611c51565b5b80604052505050565b7f4e487b7100000000000000000000000000000000000000000000000000000000600052601160045260246000fd5b7f4e487b7100000000000000000000000000000000000000000000000000000000600052602160045260246000fd5b7f4e487b7100000000000000000000000000000000000000000000000000000000600052602260045260246000fd5b7f4e487b7100000000000000000000000000000000000000000000000000000000600052603160045260246000fd5b7f4e487b7100000000000000000000000000000000000000000000000000000000600052603260045260246000fd5b7f4e487b7100000000000000000000000000000000000000000000000000000000600052604160045260246000fd5b600080fd5b600080fd5b600080fd5b600080fd5b6000601f19601f8301169050919050565b7f4f776e61626c653a206e6577206f776e657220697320746865207a65726f206160008201527f6464726573730000000000000000000000000000000000000000000000000000602082015250565b7f43616e27742077726974652073616d6520776f72642021000000000000000000600082015250565b7f50617320c3a0206c6120626f6e6e6520c3a974617065206475206a6575000000600082015250565b7f4f776e61626c653a2063616c6c6572206973206e6f7420746865206f776e6572600082015250565b7f742761732064c3a96ac3a0206a6f75c3a9210000000000000000000000000000600082015250565b7f7475206e65207065757820706173206a6f756572206175206a65750000000000600082015250565b7f6a65752070617320656e636f72652066696e6900000000000000000000000000600082015250565b60038110611dfb57611dfa611b95565b5b50565b611e0781611a36565b8114611e1257600080fd5b5056fea2646970667358221220537422b0f8d66e9248d08d7ae31f4b3b78840349366392623e9f35601480d3c664736f6c63430008070033",
  "immutableReferences": {},
  "source": "// SPDX-License-Identifier: GPL-3.0\npragma solidity 0.8.7;\n\nimport \"@openzeppelin/contracts/access/Ownable.sol\";\n\ncontract Gartic is Ownable {\n    // variables: array of words, players and winner if any\n    string[] private words;\n    mapping(address => bool) played;\n    address winner;\n\n    //state of the game\n    enum State {\n        proposition,\n        devine,\n        fin\n    }\n    State state = State.proposition;\n\n    //events\n    event newWord(address player, string word);\n    event stateChanged(State enCours);\n    event finalResults(string firstWord, string lastWord, address winnerAddr);\n\n    // constructor possible pour commencer le jeu directement avec un mot\n\n    // Add new word to the list\n    function StoreWord(string memory _newWord) public {\n        require(state == State.proposition, \"tu ne peux pas jouer au jeu\");\n        require(\n            keccak256(abi.encodePacked(_newWord)) !=\n                keccak256(abi.encodePacked((GetLastWord()))),\n            \"Can't write same word !\"\n        );\n        require(!played[msg.sender], unicode\"t'as dj jou!\");\n        words.push(_newWord);\n        newPlayer(msg.sender); // pour plus tard\n        emit newWord(msg.sender, _newWord);\n        played[msg.sender] = true;\n        if (words.length == 20) {\n            state = State.devine;\n            emit stateChanged(state);\n        }\n    }\n\n    // Get the words list\n    function GetWords() public view onlyOwner returns (string[] memory) {\n        return words;\n    }\n\n    // Get only the last word\n    function GetLastWord() public view returns (string memory) {\n        if (words.length != 0) {\n            return words[words.length - 1];\n        } else {\n            return \"\";\n        }\n    }\n\n    // two ways to finish the game:\n    // 1 - compare both last and first\n    // 2 - let the player guess what was the first word\n\n    // get the start and end of the game\n    function getFirstLast()\n        public\n        onlyOwner\n        returns (string memory first, string memory last)\n    {\n        require(state == State.devine, \"jeu pas encore fini\");\n        state = State.fin;\n        emit stateChanged(state);\n        return (words[0], words[19]);\n    }\n\n    // guessing\n    function guessIt(string memory _word) public returns (address) {\n        require(state == State.devine, unicode\"Pas  la bonne tape du jeu\");\n        if (\n            keccak256(abi.encodePacked(_word)) !=\n            keccak256(abi.encodePacked(words[0]))\n        ) {\n            return (address(0));\n        } else {\n            winner = msg.sender;\n            state = State.fin;\n            emit stateChanged(state);\n            return winner;\n        }\n    }\n\n    // getter de la fin\n    function getResults() public {\n        require(state == State.fin, \"jeu pas encore fini\");\n        emit finalResults(words[0], words[19], winner);\n    }\n\n    // fonctions de remise  zero en plus\n\n    // we keep all the addresses in an array\n    address[] players;\n\n    function newPlayer(address _newplayer) private {\n        players.push(_newplayer);\n    }\n\n    // main reset function\n    function resetGame() public onlyOwner {\n        require(state == State.fin, \"jeu pas encore fini\");\n        state = State.proposition;\n        emit stateChanged(state);\n        for (uint256 i = 19; i == 0; i--) {\n            words.pop;\n        }\n        winner = address(0);\n        noPlayers();\n    }\n\n    // reseting the played mapping\n    function noPlayers() private {\n        for (uint256 i = 19; i == 0; i--) {\n            played[players[i]] == false;\n            players.pop();\n        }\n    }\n}\n",
  "sourcePath": "/home/kojche/Documents/projects/alyra/courseCode/Developpeur-Ethereum-Template/4_Truffle_&_CI-CD/contracts/Gartic.sol",
  "compiler": {
    "name": "solc",
    "version": "0.8.7+commit.e28d00a7.Emscripten.clang"
  },
  "schemaVersion": "3.4.3",
  "updatedAt": "2021-11-14T17:57:33.833Z",
  "devdoc": {
    "kind": "dev",
    "methods": {
      "owner()": {
        "details": "Returns the address of the current owner."
      },
      "renounceOwnership()": {
        "details": "Leaves the contract without owner. It will not be possible to call `onlyOwner` functions anymore. Can only be called by the current owner. NOTE: Renouncing ownership will leave the contract without an owner, thereby removing any functionality that is only available to the owner."
      },
      "transferOwnership(address)": {
        "details": "Transfers ownership of the contract to a new account (`newOwner`). Can only be called by the current owner."
      }
    },
    "version": 1
  },
  "userdoc": {
    "kind": "user",
    "methods": {},
    "version": 1
  }
}