{
  "contractName": "Gartic2",
  "abi": [
    {
      "inputs": [
        {
          "internalType": "uint256",
          "name": "nbJ",
          "type": "uint256"
        }
      ],
      "stateMutability": "nonpayable",
      "type": "constructor"
    },
    {
      "anonymous": false,
      "inputs": [
        {
          "indexed": true,
          "internalType": "address",
          "name": "previousOwner",
          "type": "address"
        },
        {
          "indexed": true,
          "internalType": "address",
          "name": "newOwner",
          "type": "address"
        }
      ],
      "name": "OwnershipTransferred",
      "type": "event"
    },
    {
      "anonymous": false,
      "inputs": [
        {
          "indexed": false,
          "internalType": "string",
          "name": "firstWord",
          "type": "string"
        },
        {
          "indexed": false,
          "internalType": "string",
          "name": "lastWord",
          "type": "string"
        },
        {
          "indexed": false,
          "internalType": "address",
          "name": "winnerAddr",
          "type": "address"
        }
      ],
      "name": "finalResults",
      "type": "event"
    },
    {
      "anonymous": false,
      "inputs": [
        {
          "indexed": false,
          "internalType": "address",
          "name": "player",
          "type": "address"
        },
        {
          "indexed": false,
          "internalType": "string",
          "name": "word",
          "type": "string"
        }
      ],
      "name": "newWord",
      "type": "event"
    },
    {
      "anonymous": false,
      "inputs": [
        {
          "indexed": false,
          "internalType": "enum Gartic2.State",
          "name": "enCours",
          "type": "uint8"
        }
      ],
      "name": "stateChanged",
      "type": "event"
    },
    {
      "inputs": [],
      "name": "owner",
      "outputs": [
        {
          "internalType": "address",
          "name": "",
          "type": "address"
        }
      ],
      "stateMutability": "view",
      "type": "function"
    },
    {
      "inputs": [],
      "name": "renounceOwnership",
      "outputs": [],
      "stateMutability": "nonpayable",
      "type": "function"
    },
    {
      "inputs": [
        {
          "internalType": "address",
          "name": "newOwner",
          "type": "address"
        }
      ],
      "name": "transferOwnership",
      "outputs": [],
      "stateMutability": "nonpayable",
      "type": "function"
    },
    {
      "inputs": [
        {
          "internalType": "string",
          "name": "_newWord",
          "type": "string"
        }
      ],
      "name": "StoreWord",
      "outputs": [],
      "stateMutability": "nonpayable",
      "type": "function"
    },
    {
      "inputs": [],
      "name": "GetWords",
      "outputs": [
        {
          "internalType": "string[]",
          "name": "",
          "type": "string[]"
        }
      ],
      "stateMutability": "view",
      "type": "function"
    },
    {
      "inputs": [],
      "name": "getLastWord",
      "outputs": [
        {
          "internalType": "string",
          "name": "",
          "type": "string"
        }
      ],
      "stateMutability": "view",
      "type": "function"
    },
    {
      "inputs": [],
      "name": "getFirstLast",
      "outputs": [
        {
          "internalType": "string",
          "name": "first",
          "type": "string"
        },
        {
          "internalType": "string",
          "name": "last",
          "type": "string"
        }
      ],
      "stateMutability": "view",
      "type": "function"
    },
    {
      "inputs": [
        {
          "internalType": "string",
          "name": "_word",
          "type": "string"
        }
      ],
      "name": "guessIt",
      "outputs": [
        {
          "internalType": "address",
          "name": "",
          "type": "address"
        }
      ],
      "stateMutability": "nonpayable",
      "type": "function"
    },
    {
      "inputs": [],
      "name": "getResults",
      "outputs": [],
      "stateMutability": "nonpayable",
      "type": "function"
    },
    {
      "inputs": [],
      "name": "resetGame",
      "outputs": [],
      "stateMutability": "nonpayable",
      "type": "function"
    }
  ],
  "bytecode": "0x60806040526000600560006101000a81548160ff021916908360028111156200002d576200002c620001b2565b5b02179055503480156200003f57600080fd5b50604051620020c6380380620020c6833981810160405281019062000065919062000176565b62000085620000796200009360201b60201c565b6200009b60201b60201c565b806004819055505062000200565b600033905090565b60008060009054906101000a900473ffffffffffffffffffffffffffffffffffffffff169050816000806101000a81548173ffffffffffffffffffffffffffffffffffffffff021916908373ffffffffffffffffffffffffffffffffffffffff1602179055508173ffffffffffffffffffffffffffffffffffffffff168173ffffffffffffffffffffffffffffffffffffffff167f8be0079c531659141344cd1fd0a4f28419497f9722a3daafe3b4186f6b6457e060405160405180910390a35050565b6000815190506200017081620001e6565b92915050565b6000602082840312156200018f576200018e620001e1565b5b60006200019f848285016200015f565b91505092915050565b6000819050919050565b7f4e487b7100000000000000000000000000000000000000000000000000000000600052602160045260246000fd5b600080fd5b620001f181620001a8565b8114620001fd57600080fd5b50565b611eb680620002106000396000f3fe608060405234801561001057600080fd5b506004361061009e5760003560e01c8063b905626c11610066578063b905626c14610112578063bb47221914610142578063d2327c9b1461014c578063d86b94b214610168578063f2fde38b146101865761009e565b80633ae38e4a146100a35780634717f97c146100c2578063715018a6146100cc5780638da5cb5b146100d65780639bed4584146100f4575b600080fd5b6100ab6101a2565b6040516100b99291906117ec565b60405180910390f35b6100ca610401565b005b6100d461051d565b005b6100de6105a5565b6040516100eb9190611742565b60405180910390f35b6100fc6105ce565b60405161010991906117ca565b60405180910390f35b61012c6004803603810190610127919061138d565b6106b0565b6040516101399190611742565b60405180910390f35b61014a61087f565b005b6101666004803603810190610161919061138d565b610a7e565b005b610170610d71565b60405161017d919061178d565b60405180910390f35b6101a0600480360381019061019b9190611360565b610ec6565b005b6060806101ad610fbe565b73ffffffffffffffffffffffffffffffffffffffff166101cb6105a5565b73ffffffffffffffffffffffffffffffffffffffff1614610221576040517f08c379a0000000000000000000000000000000000000000000000000000000008152600401610218906118e8565b60405180910390fd5b6001600281111561023557610234611c00565b5b600560009054906101000a900460ff16600281111561025757610256611c00565b5b14610297576040517f08c379a000000000000000000000000000000000000000000000000000000000815260040161028e90611928565b60405180910390fd5b60016000815481106102ac576102ab611c8d565b5b906000526020600020016001806004546102c69190611a24565b815481106102d7576102d6611c8d565b5b906000526020600020018180546102ed90611b25565b80601f016020809104026020016040519081016040528092919081815260200182805461031990611b25565b80156103665780601f1061033b57610100808354040283529160200191610366565b820191906000526020600020905b81548152906001019060200180831161034957829003601f168201915b5050505050915080805461037990611b25565b80601f01602080910402602001604051908101604052809291908181526020018280546103a590611b25565b80156103f25780601f106103c7576101008083540402835291602001916103f2565b820191906000526020600020905b8154815290600101906020018083116103d557829003601f168201915b50505050509050915091509091565b60028081111561041457610413611c00565b5b600560009054906101000a900460ff16600281111561043657610435611c00565b5b14610476576040517f08c379a000000000000000000000000000000000000000000000000000000000815260040161046d90611928565b60405180910390fd5b7fd7f7c9f7774a37e7b1f48f511e3f1ff75e6281152a653f1212f87be93f859b2160016000815481106104ac576104ab611c8d565b5b906000526020600020016001806004546104c69190611a24565b815481106104d7576104d6611c8d565b5b90600052602060002001600360009054906101000a900473ffffffffffffffffffffffffffffffffffffffff1660405161051393929190611823565b60405180910390a1565b610525610fbe565b73ffffffffffffffffffffffffffffffffffffffff166105436105a5565b73ffffffffffffffffffffffffffffffffffffffff1614610599576040517f08c379a0000000000000000000000000000000000000000000000000000000008152600401610590906118e8565b60405180910390fd5b6105a36000610fc6565b565b60008060009054906101000a900473ffffffffffffffffffffffffffffffffffffffff16905090565b606060006001805490501461069a5760018080805490506105ef9190611a24565b81548110610600576105ff611c8d565b5b90600052602060002001805461061590611b25565b80601f016020809104026020016040519081016040528092919081815260200182805461064190611b25565b801561068e5780601f106106635761010080835404028352916020019161068e565b820191906000526020600020905b81548152906001019060200180831161067157829003601f168201915b505050505090506106ad565b6040518060200160405280600081525090505b90565b6000600160028111156106c6576106c5611c00565b5b600560009054906101000a900460ff1660028111156106e8576106e7611c00565b5b14610728576040517f08c379a000000000000000000000000000000000000000000000000000000000815260040161071f906118a8565b60405180910390fd5b600160008154811061073d5761073c611c8d565b5b90600052602060002001604051602001610757919061172b565b604051602081830303815290604052805190602001208260405160200161077e9190611714565b60405160208183030381529060405280519060200120146107a2576000905061087a565b33600360006101000a81548173ffffffffffffffffffffffffffffffffffffffff021916908373ffffffffffffffffffffffffffffffffffffffff1602179055506002600560006101000a81548160ff0219169083600281111561080957610808611c00565b5b02179055507f60a4a1bc10ae890f497872511943e85041b8c9f7f80b041024eb3b0b6b129378600560009054906101000a900460ff1660405161084c91906117af565b60405180910390a1600360009054906101000a900473ffffffffffffffffffffffffffffffffffffffff1690505b919050565b610887610fbe565b73ffffffffffffffffffffffffffffffffffffffff166108a56105a5565b73ffffffffffffffffffffffffffffffffffffffff16146108fb576040517f08c379a00000000000000000000000000000000000000000000000000000000081526004016108f2906118e8565b60405180910390fd5b60028081111561090e5761090d611c00565b5b600560009054906101000a900460ff1660028111156109305761092f611c00565b5b14610970576040517f08c379a000000000000000000000000000000000000000000000000000000000815260040161096790611928565b60405180910390fd5b6000600560006101000a81548160ff0219169083600281111561099657610995611c00565b5b02179055507f60a4a1bc10ae890f497872511943e85041b8c9f7f80b041024eb3b0b6b129378600560009054906101000a900460ff166040516109d991906117af565b60405180910390a160005b600454811015610a31576001805480610a00576109ff611c5e565b5b600190038181906000526020600020016000610a1c91906111f8565b90558080610a2990611b88565b9150506109e4565b506000600360006101000a81548173ffffffffffffffffffffffffffffffffffffffff021916908373ffffffffffffffffffffffffffffffffffffffff160217905550610a7c61108a565b565b60006002811115610a9257610a91611c00565b5b600560009054906101000a900460ff166002811115610ab457610ab3611c00565b5b14610af4576040517f08c379a0000000000000000000000000000000000000000000000000000000008152600401610aeb90611908565b60405180910390fd5b610afc6105ce565b604051602001610b0c9190611714565b6040516020818303038152906040528051906020012081604051602001610b339190611714565b604051602081830303815290604052805190602001201415610b8a576040517f08c379a0000000000000000000000000000000000000000000000000000000008152600401610b8190611888565b60405180910390fd5b600260003373ffffffffffffffffffffffffffffffffffffffff1673ffffffffffffffffffffffffffffffffffffffff16815260200190815260200160002060009054906101000a900460ff1615610c17576040517f08c379a0000000000000000000000000000000000000000000000000000000008152600401610c0e906118c8565b60405180910390fd5b600181908060018154018082558091505060019003906000526020600020016000909190919091509080519060200190610c52929190611238565b50610c5c33611192565b6001600260003373ffffffffffffffffffffffffffffffffffffffff1673ffffffffffffffffffffffffffffffffffffffff16815260200190815260200160002060006101000a81548160ff0219169083151502179055507fc37e000d2c96dad92bebce0c293504474b70916b1edfb3a6f854d4578a2807483382604051610ce592919061175d565b60405180910390a16004546001805490501415610d6e576001600560006101000a81548160ff02191690836002811115610d2257610d21611c00565b5b02179055507f60a4a1bc10ae890f497872511943e85041b8c9f7f80b041024eb3b0b6b129378600560009054906101000a900460ff16604051610d6591906117af565b60405180910390a15b50565b6060610d7b610fbe565b73ffffffffffffffffffffffffffffffffffffffff16610d996105a5565b73ffffffffffffffffffffffffffffffffffffffff1614610def576040517f08c379a0000000000000000000000000000000000000000000000000000000008152600401610de6906118e8565b60405180910390fd5b6001805480602002602001604051908101604052809291908181526020016000905b82821015610ebd578382906000526020600020018054610e3090611b25565b80601f0160208091040260200160405190810160405280929190818152602001828054610e5c90611b25565b8015610ea95780601f10610e7e57610100808354040283529160200191610ea9565b820191906000526020600020905b815481529060010190602001808311610e8c57829003601f168201915b505050505081526020019060010190610e11565b50505050905090565b610ece610fbe565b73ffffffffffffffffffffffffffffffffffffffff16610eec6105a5565b73ffffffffffffffffffffffffffffffffffffffff1614610f42576040517f08c379a0000000000000000000000000000000000000000000000000000000008152600401610f39906118e8565b60405180910390fd5b600073ffffffffffffffffffffffffffffffffffffffff168173ffffffffffffffffffffffffffffffffffffffff161415610fb2576040517f08c379a0000000000000000000000000000000000000000000000000000000008152600401610fa990611868565b60405180910390fd5b610fbb81610fc6565b50565b600033905090565b60008060009054906101000a900473ffffffffffffffffffffffffffffffffffffffff169050816000806101000a81548173ffffffffffffffffffffffffffffffffffffffff021916908373ffffffffffffffffffffffffffffffffffffffff1602179055508173ffffffffffffffffffffffffffffffffffffffff168173ffffffffffffffffffffffffffffffffffffffff167f8be0079c531659141344cd1fd0a4f28419497f9722a3daafe3b4186f6b6457e060405160405180910390a35050565b6000600160045461109b9190611a24565b90505b600081141561118f576000151560026000600684815481106110c3576110c2611c8d565b5b9060005260206000200160009054906101000a900473ffffffffffffffffffffffffffffffffffffffff1673ffffffffffffffffffffffffffffffffffffffff1673ffffffffffffffffffffffffffffffffffffffff16815260200190815260200160002060009054906101000a90505050600680548061114757611146611c5e565b5b6001900381819060005260206000200160006101000a81549073ffffffffffffffffffffffffffffffffffffffff02191690559055808061118790611afb565b91505061109e565b50565b6006819080600181540180825580915050600190039060005260206000200160009091909190916101000a81548173ffffffffffffffffffffffffffffffffffffffff021916908373ffffffffffffffffffffffffffffffffffffffff16021790555050565b50805461120490611b25565b6000825580601f106112165750611235565b601f01602090049060005260206000209081019061123491906112be565b5b50565b82805461124490611b25565b90600052602060002090601f01602090048101928261126657600085556112ad565b82601f1061127f57805160ff19168380011785556112ad565b828001600101855582156112ad579182015b828111156112ac578251825591602001919060010190611291565b5b5090506112ba91906112be565b5090565b5b808211156112d75760008160009055506001016112bf565b5090565b60006112ee6112e98461196d565b611948565b90508281526020810184848401111561130a57611309611cf0565b5b611315848285611ab9565b509392505050565b60008135905061132c81611e69565b92915050565b600082601f83011261134757611346611ceb565b5b81356113578482602086016112db565b91505092915050565b60006020828403121561137657611375611cfa565b5b60006113848482850161131d565b91505092915050565b6000602082840312156113a3576113a2611cfa565b5b600082013567ffffffffffffffff8111156113c1576113c0611cf5565b5b6113cd84828501611332565b91505092915050565b60006113e2838361147d565b905092915050565b6113f381611a58565b82525050565b6000611404826119c3565b61140e81856119e6565b9350836020820285016114208561199e565b8060005b8581101561145c578484038952815161143d85826113d6565b9450611448836119d9565b925060208a01995050600181019050611424565b50829750879550505050505092915050565b61147781611aa7565b82525050565b6000611488826119ce565b61149281856119f7565b93506114a2818560208601611ac8565b6114ab81611cff565b840191505092915050565b60006114c1826119ce565b6114cb8185611a08565b93506114db818560208601611ac8565b6114e481611cff565b840191505092915050565b60006114fa826119ce565b6115048185611a19565b9350611514818560208601611ac8565b80840191505092915050565b6000815461152d81611b25565b6115378186611a08565b94506001821660008114611552576001811461156457611597565b60ff1983168652602086019350611597565b61156d856119ae565b60005b8381101561158f57815481890152600182019150602081019050611570565b808801955050505b50505092915050565b600081546115ad81611b25565b6115b78186611a19565b945060018216600081146115d257600181146115e357611616565b60ff19831686528186019350611616565b6115ec856119ae565b60005b8381101561160e578154818901526001820191506020810190506115ef565b838801955050505b50505092915050565b600061162c602683611a08565b915061163782611d10565b604082019050919050565b600061164f601783611a08565b915061165a82611d5f565b602082019050919050565b6000611672601d83611a08565b915061167d82611d88565b602082019050919050565b6000611695600e83611a08565b91506116a082611db1565b602082019050919050565b60006116b8602083611a08565b91506116c382611dda565b602082019050919050565b60006116db601b83611a08565b91506116e682611e03565b602082019050919050565b60006116fe601383611a08565b915061170982611e2c565b602082019050919050565b600061172082846114ef565b915081905092915050565b600061173782846115a0565b915081905092915050565b600060208201905061175760008301846113ea565b92915050565b600060408201905061177260008301856113ea565b818103602083015261178481846114b6565b90509392505050565b600060208201905081810360008301526117a781846113f9565b905092915050565b60006020820190506117c4600083018461146e565b92915050565b600060208201905081810360008301526117e481846114b6565b905092915050565b6000604082019050818103600083015261180681856114b6565b9050818103602083015261181a81846114b6565b90509392505050565b6000606082019050818103600083015261183d8186611520565b905081810360208301526118518185611520565b905061186060408301846113ea565b949350505050565b600060208201905081810360008301526118818161161f565b9050919050565b600060208201905081810360008301526118a181611642565b9050919050565b600060208201905081810360008301526118c181611665565b9050919050565b600060208201905081810360008301526118e181611688565b9050919050565b60006020820190508181036000830152611901816116ab565b9050919050565b60006020820190508181036000830152611921816116ce565b9050919050565b60006020820190508181036000830152611941816116f1565b9050919050565b6000611952611963565b905061195e8282611b57565b919050565b6000604051905090565b600067ffffffffffffffff82111561198857611987611cbc565b5b61199182611cff565b9050602081019050919050565b6000819050602082019050919050565b60008190508160005260206000209050919050565b600081519050919050565b600081519050919050565b6000602082019050919050565b600082825260208201905092915050565b600082825260208201905092915050565b600082825260208201905092915050565b600081905092915050565b6000611a2f82611a9d565b9150611a3a83611a9d565b925082821015611a4d57611a4c611bd1565b5b828203905092915050565b6000611a6382611a7d565b9050919050565b6000819050611a7882611e55565b919050565b600073ffffffffffffffffffffffffffffffffffffffff82169050919050565b6000819050919050565b6000611ab282611a6a565b9050919050565b82818337600083830152505050565b60005b83811015611ae6578082015181840152602081019050611acb565b83811115611af5576000848401525b50505050565b6000611b0682611a9d565b91506000821415611b1a57611b19611bd1565b5b600182039050919050565b60006002820490506001821680611b3d57607f821691505b60208210811415611b5157611b50611c2f565b5b50919050565b611b6082611cff565b810181811067ffffffffffffffff82111715611b7f57611b7e611cbc565b5b80604052505050565b6000611b9382611a9d565b91507fffffffffffffffffffffffffffffffffffffffffffffffffffffffffffffffff821415611bc657611bc5611bd1565b5b600182019050919050565b7f4e487b7100000000000000000000000000000000000000000000000000000000600052601160045260246000fd5b7f4e487b7100000000000000000000000000000000000000000000000000000000600052602160045260246000fd5b7f4e487b7100000000000000000000000000000000000000000000000000000000600052602260045260246000fd5b7f4e487b7100000000000000000000000000000000000000000000000000000000600052603160045260246000fd5b7f4e487b7100000000000000000000000000000000000000000000000000000000600052603260045260246000fd5b7f4e487b7100000000000000000000000000000000000000000000000000000000600052604160045260246000fd5b600080fd5b600080fd5b600080fd5b600080fd5b6000601f19601f8301169050919050565b7f4f776e61626c653a206e6577206f776e657220697320746865207a65726f206160008201527f6464726573730000000000000000000000000000000000000000000000000000602082015250565b7f43616e27742077726974652073616d6520776f72642021000000000000000000600082015250565b7f50617320c3a0206c6120626f6e6e6520c3a974617065206475206a6575000000600082015250565b7f7461732064656a61206a6f756521000000000000000000000000000000000000600082015250565b7f4f776e61626c653a2063616c6c6572206973206e6f7420746865206f776e6572600082015250565b7f7475206e65207065757820706173206a6f756572206175206a65750000000000600082015250565b7f6a65752070617320656e636f72652066696e6900000000000000000000000000600082015250565b60038110611e6657611e65611c00565b5b50565b611e7281611a58565b8114611e7d57600080fd5b5056fea2646970667358221220d4ff0b9400a42c3e363ce47759aa35e74137861d97f0963afc3b06872bf8582664736f6c63430008070033",
  "immutableReferences": {},
  "source": "// SPDX-License-Identifier: GPL-3.0\npragma solidity 0.8.7;\n\nimport \"@openzeppelin/contracts/access/Ownable.sol\";\n\n// import \"https://github.com/OpenZeppelin/openzeppelin-contracts/blob/master/contracts/access/Ownable.sol\";\n\ncontract Gartic2 is Ownable {\n    // variables: array of words, players and winner if any\n    string[] private words;\n    mapping(address => bool) played;\n    address winner;\n\n    uint256 nbJoueur;\n\n    constructor(uint256 nbJ) {\n        nbJoueur = nbJ;\n    }\n\n    //state of the game\n    enum State {\n        proposition,\n        devine,\n        fin\n    }\n    State state = State.proposition;\n\n    //events\n    event newWord(address player, string word);\n    event stateChanged(State enCours);\n    event finalResults(string firstWord, string lastWord, address winnerAddr);\n\n    // constructor possible pour commencer le jeu directement avec un mot\n\n    // Add new word to the list\n    function StoreWord(string memory _newWord) public {\n        require(state == State.proposition, \"tu ne peux pas jouer au jeu\");\n        require(\n            keccak256(abi.encodePacked(_newWord)) !=\n                keccak256(abi.encodePacked((getLastWord()))),\n            \"Can't write same word !\"\n        );\n        require(\n            !played[msg.sender],\n            /* unicode */\n            \"tas deja joue!\"\n        );\n        words.push(_newWord);\n        newPlayer(msg.sender); // pour plus tard\n\n        played[msg.sender] = true;\n\n        emit newWord(msg.sender, _newWord);\n        if (words.length == nbJoueur) {\n            state = State.devine;\n            emit stateChanged(state);\n        }\n    }\n\n    // Get the words list\n    function GetWords() public view onlyOwner returns (string[] memory) {\n        return words;\n    }\n\n    // Get only the last word\n    function getLastWord() public view returns (string memory) {\n        if (words.length != 0) {\n            return words[words.length - 1];\n        } else {\n            return \"\";\n        }\n    }\n\n    // two ways to finish the game:\n    // 1 - compare both last and first\n    // 2 - let the player guess what was the first word\n\n    // get the start and end of the game\n    function getFirstLast()\n        public\n        view\n        onlyOwner\n        returns (string memory first, string memory last)\n    {\n        require(state == State.devine, \"jeu pas encore fini\");\n        // state==State.fin;\n        // emit stateChanged(state);\n        return (words[0], words[nbJoueur - 1]);\n    }\n\n    // guessing\n    function guessIt(string memory _word) public returns (address) {\n        require(state == State.devine, unicode\"Pas  la bonne tape du jeu\");\n        if (\n            keccak256(abi.encodePacked(_word)) !=\n            keccak256(abi.encodePacked(words[0]))\n        ) {\n            return (address(0));\n        } else {\n            winner = msg.sender;\n            state = State.fin;\n            emit stateChanged(state);\n            return winner;\n        }\n    }\n\n    // getter de la fin\n    function getResults() public {\n        require(state == State.fin, \"jeu pas encore fini\");\n        emit finalResults(words[0], words[nbJoueur - 1], winner);\n    }\n\n    // fonctions de remise  zero en plus\n\n    // we keep all the addresses in an array\n    address[] players;\n\n    function newPlayer(address _newplayer) private {\n        players.push(_newplayer);\n    }\n\n    // main reset function\n    function resetGame() public onlyOwner {\n        require(state == State.fin, \"jeu pas encore fini\");\n        state = State.proposition;\n        emit stateChanged(state);\n        for (uint256 i = 0; i < nbJoueur; i++) {\n            words.pop();\n        }\n        // delete words;\n        winner = address(0);\n        noPlayers();\n    }\n\n    // reseting the played mapping\n    function noPlayers() private {\n        for (uint256 i = nbJoueur - 1; i == 0; i--) {\n            played[players[i]] == false;\n            players.pop();\n        }\n    }\n}\n",
  "sourcePath": "/home/kojche/Documents/projects/alyra/courseCode/Developpeur-Ethereum-Template/4_Truffle_&_CI-CD/contracts/Gartic2.sol",
  "compiler": {
    "name": "solc",
    "version": "0.8.7+commit.e28d00a7.Emscripten.clang"
  },
  "schemaVersion": "3.4.3",
  "updatedAt": "2021-11-14T17:57:33.838Z",
  "devdoc": {
    "kind": "dev",
    "methods": {
      "owner()": {
        "details": "Returns the address of the current owner."
      },
      "renounceOwnership()": {
        "details": "Leaves the contract without owner. It will not be possible to call `onlyOwner` functions anymore. Can only be called by the current owner. NOTE: Renouncing ownership will leave the contract without an owner, thereby removing any functionality that is only available to the owner."
      },
      "transferOwnership(address)": {
        "details": "Transfers ownership of the contract to a new account (`newOwner`). Can only be called by the current owner."
      }
    },
    "version": 1
  },
  "userdoc": {
    "kind": "user",
    "methods": {},
    "version": 1
  }
}